{
  "contractName": "Mokens",
  "abi": [
    {
      "constant": true,
      "inputs": [],
      "name": "mintPriceOffset",
      "outputs": [
        {
          "name": "",
          "type": "uint256"
        }
      ],
      "payable": false,
      "stateMutability": "view",
      "type": "function"
    },
    {
      "constant": true,
      "inputs": [],
      "name": "blockNum",
      "outputs": [
        {
          "name": "",
          "type": "uint256"
        }
      ],
      "payable": false,
      "stateMutability": "view",
      "type": "function"
    },
    {
      "constant": true,
      "inputs": [],
      "name": "owner",
      "outputs": [
        {
          "name": "",
          "type": "address"
        }
      ],
      "payable": false,
      "stateMutability": "view",
      "type": "function"
    },
    {
      "constant": true,
      "inputs": [],
      "name": "mintPriceBuffer",
      "outputs": [
        {
          "name": "",
          "type": "uint256"
        }
      ],
      "payable": false,
      "stateMutability": "view",
      "type": "function"
    },
    {
      "constant": true,
      "inputs": [],
      "name": "mintStepPrice",
      "outputs": [
        {
          "name": "",
          "type": "uint256"
        }
      ],
      "payable": false,
      "stateMutability": "view",
      "type": "function"
    },
    {
      "inputs": [],
      "payable": false,
      "stateMutability": "nonpayable",
      "type": "constructor"
    },
    {
      "anonymous": false,
      "inputs": [
        {
          "indexed": false,
          "name": "index",
          "type": "uint256"
        },
        {
          "indexed": false,
          "name": "name",
          "type": "bytes32"
        },
        {
          "indexed": false,
          "name": "startTokenId",
          "type": "uint256"
        }
      ],
      "name": "NewEra",
      "type": "event"
    },
    {
      "anonymous": false,
      "inputs": [
        {
          "indexed": true,
          "name": "mintContract",
          "type": "address"
        },
        {
          "indexed": true,
          "name": "owner",
          "type": "address"
        },
        {
          "indexed": true,
          "name": "era",
          "type": "bytes32"
        },
        {
          "indexed": false,
          "name": "mokenName",
          "type": "string"
        },
        {
          "indexed": false,
          "name": "data",
          "type": "bytes32"
        },
        {
          "indexed": false,
          "name": "tokenId",
          "type": "uint256"
        },
        {
          "indexed": false,
          "name": "currencyName",
          "type": "bytes32"
        },
        {
          "indexed": false,
          "name": "price",
          "type": "uint256"
        }
      ],
      "name": "Mint",
      "type": "event"
    },
    {
      "anonymous": false,
      "inputs": [
        {
          "indexed": false,
          "name": "mintPrice",
          "type": "uint256"
        }
      ],
      "name": "MintPriceChange",
      "type": "event"
    },
    {
      "anonymous": false,
      "inputs": [
        {
          "indexed": false,
          "name": "mintPrice",
          "type": "uint256"
        },
        {
          "indexed": false,
          "name": "mintStepPrice",
          "type": "uint256"
        },
        {
          "indexed": false,
          "name": "mintPriceOffset",
          "type": "uint256"
        },
        {
          "indexed": false,
          "name": "mintPriceBuffer",
          "type": "uint256"
        }
      ],
      "name": "MintPriceConfigurationChange",
      "type": "event"
    },
    {
      "anonymous": false,
      "inputs": [
        {
          "indexed": true,
          "name": "_from",
          "type": "address"
        },
        {
          "indexed": true,
          "name": "_tokenId",
          "type": "uint256"
        },
        {
          "indexed": true,
          "name": "_childContract",
          "type": "address"
        },
        {
          "indexed": false,
          "name": "_childTokenId",
          "type": "uint256"
        }
      ],
      "name": "ReceivedChild",
      "type": "event"
    },
    {
      "anonymous": false,
      "inputs": [
        {
          "indexed": true,
          "name": "_to",
          "type": "address"
        },
        {
          "indexed": false,
          "name": "_data",
          "type": "bytes"
        },
        {
          "indexed": true,
          "name": "_childTokenId",
          "type": "uint256"
        }
      ],
      "name": "TransferChild",
      "type": "event"
    },
    {
      "anonymous": false,
      "inputs": [
        {
          "indexed": true,
          "name": "_from",
          "type": "address"
        },
        {
          "indexed": true,
          "name": "_to",
          "type": "address"
        },
        {
          "indexed": true,
          "name": "_tokenId",
          "type": "uint256"
        }
      ],
      "name": "Transfer",
      "type": "event"
    },
    {
      "anonymous": false,
      "inputs": [
        {
          "indexed": true,
          "name": "_tokenOwner",
          "type": "address"
        },
        {
          "indexed": true,
          "name": "_approved",
          "type": "address"
        },
        {
          "indexed": true,
          "name": "_tokenId",
          "type": "uint256"
        }
      ],
      "name": "Approval",
      "type": "event"
    },
    {
      "anonymous": false,
      "inputs": [
        {
          "indexed": true,
          "name": "_tokenOwner",
          "type": "address"
        },
        {
          "indexed": true,
          "name": "_operator",
          "type": "address"
        },
        {
          "indexed": false,
          "name": "_approved",
          "type": "bool"
        }
      ],
      "name": "ApprovalForAll",
      "type": "event"
    },
    {
      "constant": true,
      "inputs": [
        {
          "name": "_interfaceID",
          "type": "bytes4"
        }
      ],
      "name": "supportsInterface",
      "outputs": [
        {
          "name": "",
          "type": "bool"
        }
      ],
      "payable": false,
      "stateMutability": "view",
      "type": "function"
    },
    {
      "constant": true,
      "inputs": [],
      "name": "getBalance",
      "outputs": [
        {
          "name": "",
          "type": "uint256"
        }
      ],
      "payable": false,
      "stateMutability": "view",
      "type": "function"
    },
    {
      "constant": false,
      "inputs": [
        {
          "name": "_sendTo",
          "type": "address"
        },
        {
          "name": "_amount",
          "type": "uint256"
        }
      ],
      "name": "withdraw",
      "outputs": [],
      "payable": false,
      "stateMutability": "nonpayable",
      "type": "function"
    },
    {
      "constant": false,
      "inputs": [
        {
          "name": "_newOwner",
          "type": "address"
        }
      ],
      "name": "transferOwnership",
      "outputs": [],
      "payable": false,
      "stateMutability": "nonpayable",
      "type": "function"
    },
    {
      "constant": true,
      "inputs": [
        {
          "name": "_tokenOwner",
          "type": "address"
        }
      ],
      "name": "balanceOf",
      "outputs": [
        {
          "name": "totalMokensOwned",
          "type": "uint256"
        }
      ],
      "payable": false,
      "stateMutability": "view",
      "type": "function"
    },
    {
      "constant": true,
      "inputs": [
        {
          "name": "_tokenOwner",
          "type": "address"
        }
      ],
      "name": "getTopTenTokenArray",
      "outputs": [
        {
          "name": "",
          "type": "uint256[10]"
        }
      ],
      "payable": false,
      "stateMutability": "view",
      "type": "function"
    },
    {
      "constant": true,
      "inputs": [
        {
          "name": "_tokenId",
          "type": "uint256"
        }
      ],
      "name": "ownerOf",
      "outputs": [
        {
          "name": "tokenOwner",
          "type": "address"
        }
      ],
      "payable": false,
      "stateMutability": "view",
      "type": "function"
    },
    {
      "constant": false,
      "inputs": [
        {
          "name": "_to",
          "type": "address"
        },
        {
          "name": "_tokenId",
          "type": "uint256"
        }
      ],
      "name": "approve",
      "outputs": [],
      "payable": false,
      "stateMutability": "nonpayable",
      "type": "function"
    },
    {
      "constant": true,
      "inputs": [
        {
          "name": "_tokenId",
          "type": "uint256"
        }
      ],
      "name": "getApproved",
      "outputs": [
        {
          "name": "approvedAddress",
          "type": "address"
        }
      ],
      "payable": false,
      "stateMutability": "view",
      "type": "function"
    },
    {
      "constant": false,
      "inputs": [
        {
          "name": "_to",
          "type": "address"
        },
        {
          "name": "_approved",
          "type": "bool"
        }
      ],
      "name": "setApprovalForAll",
      "outputs": [],
      "payable": false,
      "stateMutability": "nonpayable",
      "type": "function"
    },
    {
      "constant": true,
      "inputs": [
        {
          "name": "_tokenOwner",
          "type": "address"
        },
        {
          "name": "_operator",
          "type": "address"
        }
      ],
      "name": "isApprovedForAll",
      "outputs": [
        {
          "name": "approved",
          "type": "bool"
        }
      ],
      "payable": false,
      "stateMutability": "view",
      "type": "function"
    },
    {
      "constant": false,
      "inputs": [
        {
          "name": "_from",
          "type": "address"
        },
        {
          "name": "_to",
          "type": "address"
        },
        {
          "name": "_tokenId",
          "type": "uint256"
        }
      ],
      "name": "transferFrom",
      "outputs": [],
      "payable": false,
      "stateMutability": "nonpayable",
      "type": "function"
    },
    {
      "constant": false,
      "inputs": [
        {
          "name": "_from",
          "type": "address"
        },
        {
          "name": "_to",
          "type": "address"
        },
        {
          "name": "_tokenId",
          "type": "uint256"
        }
      ],
      "name": "safeTransferFrom",
      "outputs": [],
      "payable": false,
      "stateMutability": "nonpayable",
      "type": "function"
    },
    {
      "constant": false,
      "inputs": [
        {
          "name": "_from",
          "type": "address"
        },
        {
          "name": "_to",
          "type": "address"
        },
        {
          "name": "_tokenId",
          "type": "uint256"
        },
        {
          "name": "_data",
          "type": "bytes"
        }
      ],
      "name": "safeTransferFrom",
      "outputs": [],
      "payable": false,
      "stateMutability": "nonpayable",
      "type": "function"
    },
    {
      "constant": true,
      "inputs": [
        {
          "name": "_tokenId",
          "type": "uint256"
        }
      ],
      "name": "exists",
      "outputs": [
        {
          "name": "",
          "type": "bool"
        }
      ],
      "payable": false,
      "stateMutability": "view",
      "type": "function"
    },
    {
      "constant": true,
      "inputs": [
        {
          "name": "_tokenOwner",
          "type": "address"
        },
        {
          "name": "_index",
          "type": "uint256"
        }
      ],
      "name": "tokenOfOwnerByIndex",
      "outputs": [
        {
          "name": "tokenId",
          "type": "uint256"
        }
      ],
      "payable": false,
      "stateMutability": "view",
      "type": "function"
    },
    {
      "constant": true,
      "inputs": [],
      "name": "totalSupply",
      "outputs": [
        {
          "name": "totalMokens",
          "type": "uint256"
        }
      ],
      "payable": false,
      "stateMutability": "view",
      "type": "function"
    },
    {
      "constant": true,
      "inputs": [
        {
          "name": "_index",
          "type": "uint256"
        }
      ],
      "name": "tokenByIndex",
      "outputs": [
        {
          "name": "tokenId",
          "type": "uint256"
        }
      ],
      "payable": false,
      "stateMutability": "view",
      "type": "function"
    },
    {
      "constant": true,
      "inputs": [],
      "name": "name",
      "outputs": [
        {
          "name": "",
          "type": "string"
        }
      ],
      "payable": false,
      "stateMutability": "pure",
      "type": "function"
    },
    {
      "constant": true,
      "inputs": [],
      "name": "symbol",
      "outputs": [
        {
          "name": "",
          "type": "string"
        }
      ],
      "payable": false,
      "stateMutability": "pure",
      "type": "function"
    },
    {
      "constant": false,
      "inputs": [
        {
          "name": "_defaultURIStart",
          "type": "string"
        }
      ],
      "name": "setDefaultURIStart",
      "outputs": [],
      "payable": false,
      "stateMutability": "nonpayable",
      "type": "function"
    },
    {
      "constant": false,
      "inputs": [
        {
          "name": "_defaultURIEnd",
          "type": "string"
        }
      ],
      "name": "setDefaultURIEnd",
      "outputs": [],
      "payable": false,
      "stateMutability": "nonpayable",
      "type": "function"
    },
    {
      "constant": false,
      "inputs": [
        {
          "name": "_tokenId",
          "type": "uint256"
        },
        {
          "name": "_uri",
          "type": "string"
        }
      ],
      "name": "setTokenURI",
      "outputs": [],
      "payable": false,
      "stateMutability": "nonpayable",
      "type": "function"
    },
    {
      "constant": false,
      "inputs": [
        {
          "name": "_tokenId",
          "type": "uint256"
        }
      ],
      "name": "deleteCustomTokenURI",
      "outputs": [],
      "payable": false,
      "stateMutability": "nonpayable",
      "type": "function"
    },
    {
      "constant": true,
      "inputs": [
        {
          "name": "_tokenId",
          "type": "uint256"
        }
      ],
      "name": "hasCustomURI",
      "outputs": [
        {
          "name": "",
          "type": "bool"
        }
      ],
      "payable": false,
      "stateMutability": "view",
      "type": "function"
    },
    {
      "constant": true,
      "inputs": [
        {
          "name": "_tokenId",
          "type": "uint256"
        }
      ],
      "name": "tokenURI",
      "outputs": [
        {
          "name": "tokenURIString",
          "type": "string"
        }
      ],
      "payable": false,
      "stateMutability": "view",
      "type": "function"
    },
    {
      "constant": false,
      "inputs": [
        {
          "name": "_eraName",
          "type": "bytes32"
        }
      ],
      "name": "startNextEra",
      "outputs": [
        {
          "name": "index",
          "type": "uint256"
        },
        {
          "name": "startTokenId",
          "type": "uint256"
        }
      ],
      "payable": false,
      "stateMutability": "nonpayable",
      "type": "function"
    },
    {
      "constant": false,
      "inputs": [
        {
          "name": "_eraName",
          "type": "bytes32"
        },
        {
          "name": "_mintStepPrice",
          "type": "uint256"
        },
        {
          "name": "_mintPriceOffset",
          "type": "uint256"
        },
        {
          "name": "_mintPriceBuffer",
          "type": "uint256"
        }
      ],
      "name": "startNextEra",
      "outputs": [
        {
          "name": "index",
          "type": "uint256"
        },
        {
          "name": "startTokenId",
          "type": "uint256"
        },
        {
          "name": "mintPrice",
          "type": "uint256"
        }
      ],
      "payable": false,
      "stateMutability": "nonpayable",
      "type": "function"
    },
    {
      "constant": true,
      "inputs": [
        {
          "name": "_index",
          "type": "uint256"
        }
      ],
      "name": "eraByIndex",
      "outputs": [
        {
          "name": "era",
          "type": "bytes32"
        }
      ],
      "payable": false,
      "stateMutability": "view",
      "type": "function"
    },
    {
      "constant": true,
      "inputs": [
        {
          "name": "_eraName",
          "type": "bytes32"
        }
      ],
      "name": "eraByName",
      "outputs": [
        {
          "name": "indexOfEra",
          "type": "uint256"
        }
      ],
      "payable": false,
      "stateMutability": "view",
      "type": "function"
    },
    {
      "constant": true,
      "inputs": [],
      "name": "currentEra",
      "outputs": [
        {
          "name": "era",
          "type": "bytes32"
        }
      ],
      "payable": false,
      "stateMutability": "view",
      "type": "function"
    },
    {
      "constant": true,
      "inputs": [],
      "name": "currentEraIndex",
      "outputs": [
        {
          "name": "indexOfEra",
          "type": "uint256"
        }
      ],
      "payable": false,
      "stateMutability": "view",
      "type": "function"
    },
    {
      "constant": true,
      "inputs": [
        {
          "name": "_eraName",
          "type": "bytes32"
        }
      ],
      "name": "eraExists",
      "outputs": [
        {
          "name": "",
          "type": "bool"
        }
      ],
      "payable": false,
      "stateMutability": "view",
      "type": "function"
    },
    {
      "constant": true,
      "inputs": [],
      "name": "totalEras",
      "outputs": [
        {
          "name": "totalEras_",
          "type": "uint256"
        }
      ],
      "payable": false,
      "stateMutability": "view",
      "type": "function"
    },
    {
      "constant": true,
      "inputs": [],
      "name": "mintData",
      "outputs": [
        {
          "name": "mokensLength_",
          "type": "uint256"
        },
        {
          "name": "mintStepPrice_",
          "type": "uint256"
        },
        {
          "name": "mintPriceOffset_",
          "type": "uint256"
        }
      ],
      "payable": false,
      "stateMutability": "view",
      "type": "function"
    },
    {
      "constant": false,
      "inputs": [
        {
          "name": "_mintStepPrice",
          "type": "uint256"
        },
        {
          "name": "_mintPriceOffset",
          "type": "uint256"
        },
        {
          "name": "_mintPriceBuffer",
          "type": "uint256"
        }
      ],
      "name": "setMintPrice",
      "outputs": [
        {
          "name": "mintPrice",
          "type": "uint256"
        }
      ],
      "payable": false,
      "stateMutability": "nonpayable",
      "type": "function"
    },
    {
      "constant": true,
      "inputs": [],
      "name": "mintPrice",
      "outputs": [
        {
          "name": "",
          "type": "uint256"
        }
      ],
      "payable": false,
      "stateMutability": "view",
      "type": "function"
    },
    {
      "constant": false,
      "inputs": [
        {
          "name": "_tokenOwner",
          "type": "address"
        },
        {
          "name": "_mokenName",
          "type": "string"
        },
        {
          "name": "_linkHash",
          "type": "bytes32"
        }
      ],
      "name": "mint",
      "outputs": [
        {
          "name": "tokenId",
          "type": "uint256"
        }
      ],
      "payable": true,
      "stateMutability": "payable",
      "type": "function"
    },
    {
      "constant": true,
      "inputs": [
        {
          "name": "_mokenName",
          "type": "string"
        }
      ],
      "name": "mokenNameExists",
      "outputs": [
        {
          "name": "",
          "type": "bool"
        }
      ],
      "payable": false,
      "stateMutability": "view",
      "type": "function"
    },
    {
      "constant": true,
      "inputs": [
        {
          "name": "_mokenName",
          "type": "string"
        }
      ],
      "name": "mokenId",
      "outputs": [
        {
          "name": "tokenId",
          "type": "uint256"
        }
      ],
      "payable": false,
      "stateMutability": "view",
      "type": "function"
    },
    {
      "constant": true,
      "inputs": [
        {
          "name": "_tokenId",
          "type": "uint256"
        }
      ],
      "name": "mokenData",
      "outputs": [
        {
          "name": "data",
          "type": "bytes32"
        }
      ],
      "payable": false,
      "stateMutability": "view",
      "type": "function"
    },
    {
      "constant": true,
      "inputs": [
        {
          "name": "_data",
          "type": "uint256"
        }
      ],
      "name": "eraFromMokenData",
      "outputs": [
        {
          "name": "era",
          "type": "bytes32"
        }
      ],
      "payable": false,
      "stateMutability": "view",
      "type": "function"
    },
    {
      "constant": true,
      "inputs": [
        {
          "name": "_data",
          "type": "bytes32"
        }
      ],
      "name": "eraFromMokenData",
      "outputs": [
        {
          "name": "era",
          "type": "bytes32"
        }
      ],
      "payable": false,
      "stateMutability": "view",
      "type": "function"
    },
    {
      "constant": true,
      "inputs": [
        {
          "name": "_tokenId",
          "type": "uint256"
        }
      ],
      "name": "mokenEra",
      "outputs": [
        {
          "name": "era",
          "type": "bytes32"
        }
      ],
      "payable": false,
      "stateMutability": "view",
      "type": "function"
    },
    {
      "constant": true,
      "inputs": [
        {
          "name": "_tokenId",
          "type": "uint256"
        }
      ],
      "name": "moken",
      "outputs": [
        {
          "name": "mokenName",
          "type": "string"
        },
        {
          "name": "era",
          "type": "bytes32"
        },
        {
          "name": "data",
          "type": "bytes32"
        },
        {
          "name": "tokenOwner",
          "type": "address"
        }
      ],
      "payable": false,
      "stateMutability": "view",
      "type": "function"
    },
    {
      "constant": true,
      "inputs": [
        {
          "name": "_tokenId",
          "type": "uint256"
        }
      ],
      "name": "mokenBytes32",
      "outputs": [
        {
          "name": "mokenNameBytes32",
          "type": "bytes32"
        },
        {
          "name": "era",
          "type": "bytes32"
        },
        {
          "name": "data",
          "type": "bytes32"
        },
        {
          "name": "tokenOwner",
          "type": "address"
        }
      ],
      "payable": false,
      "stateMutability": "view",
      "type": "function"
    },
    {
      "constant": true,
      "inputs": [
        {
          "name": "_tokenId",
          "type": "uint256"
        }
      ],
      "name": "mokenNoName",
      "outputs": [
        {
          "name": "era",
          "type": "bytes32"
        },
        {
          "name": "data",
          "type": "bytes32"
        },
        {
          "name": "tokenOwner",
          "type": "address"
        }
      ],
      "payable": false,
      "stateMutability": "view",
      "type": "function"
    },
    {
      "constant": true,
      "inputs": [
        {
          "name": "_tokenId",
          "type": "uint256"
        }
      ],
      "name": "mokenName",
      "outputs": [
        {
          "name": "mokenName_",
          "type": "string"
        }
      ],
      "payable": false,
      "stateMutability": "view",
      "type": "function"
    },
    {
      "constant": true,
      "inputs": [
        {
          "name": "_tokenId",
          "type": "uint256"
        }
      ],
      "name": "mokenNameBytes32",
      "outputs": [
        {
          "name": "mokenNameBytes32_",
          "type": "bytes32"
        }
      ],
      "payable": false,
      "stateMutability": "view",
      "type": "function"
    },
    {
      "constant": true,
      "inputs": [
        {
          "name": "_tokenId",
          "type": "uint256"
        },
        {
          "name": "_childContract",
          "type": "address"
        },
        {
          "name": "_childTokenId",
          "type": "uint256"
        }
      ],
      "name": "test",
      "outputs": [
        {
          "name": "",
          "type": "uint256"
        }
      ],
      "payable": false,
      "stateMutability": "view",
      "type": "function"
    },
    {
      "constant": false,
      "inputs": [
        {
          "name": "_from",
          "type": "address"
        },
        {
          "name": "_childTokenId",
          "type": "uint256"
        },
        {
          "name": "_data",
          "type": "bytes"
        }
      ],
      "name": "onERC721Received",
      "outputs": [
        {
          "name": "",
          "type": "bytes4"
        }
      ],
      "payable": false,
      "stateMutability": "nonpayable",
      "type": "function"
    },
    {
      "constant": false,
      "inputs": [
        {
          "name": "_to",
          "type": "address"
        },
        {
          "name": "_tokenId",
          "type": "uint256"
        },
        {
          "name": "_childContract",
          "type": "address"
        },
        {
          "name": "_childTokenId",
          "type": "uint256"
        },
        {
          "name": "_data",
          "type": "bytes"
        }
      ],
      "name": "transferChild",
      "outputs": [],
      "payable": false,
      "stateMutability": "nonpayable",
      "type": "function"
    },
    {
      "constant": false,
      "inputs": [
        {
          "name": "_to",
          "type": "address"
        },
        {
          "name": "_tokenId",
          "type": "uint256"
        },
        {
          "name": "_childContract",
          "type": "address"
        },
        {
          "name": "_childTokenId",
          "type": "uint256"
        }
      ],
      "name": "transferChild",
      "outputs": [],
      "payable": false,
      "stateMutability": "nonpayable",
      "type": "function"
    },
    {
      "constant": true,
      "inputs": [
        {
          "name": "_childContract",
          "type": "address"
        },
        {
          "name": "_childTokenId",
          "type": "uint256"
        }
      ],
      "name": "childOwnerOf",
      "outputs": [
        {
          "name": "tokenId",
          "type": "uint256"
        }
      ],
      "payable": false,
      "stateMutability": "view",
      "type": "function"
    },
    {
      "constant": true,
      "inputs": [
        {
          "name": "_childContract",
          "type": "address"
        },
        {
          "name": "_childTokenId",
          "type": "uint256"
        }
      ],
      "name": "childExists",
      "outputs": [
        {
          "name": "",
          "type": "bool"
        }
      ],
      "payable": false,
      "stateMutability": "view",
      "type": "function"
    },
    {
      "constant": true,
      "inputs": [
        {
          "name": "_tokenId",
          "type": "uint256"
        }
      ],
      "name": "totalChildContracts",
      "outputs": [
        {
          "name": "",
          "type": "uint256"
        }
      ],
      "payable": false,
      "stateMutability": "view",
      "type": "function"
    },
    {
      "constant": true,
      "inputs": [
        {
          "name": "_tokenId",
          "type": "uint256"
        },
        {
          "name": "_index",
          "type": "uint256"
        }
      ],
      "name": "childContractByIndex",
      "outputs": [
        {
          "name": "childContract",
          "type": "address"
        }
      ],
      "payable": false,
      "stateMutability": "view",
      "type": "function"
    },
    {
      "constant": true,
      "inputs": [
        {
          "name": "_tokenId",
          "type": "uint256"
        },
        {
          "name": "_childContract",
          "type": "address"
        }
      ],
      "name": "totalChildTokens",
      "outputs": [
        {
          "name": "",
          "type": "uint256"
        }
      ],
      "payable": false,
      "stateMutability": "view",
      "type": "function"
    },
    {
      "constant": true,
      "inputs": [
        {
          "name": "_tokenId",
          "type": "uint256"
        },
        {
          "name": "_childContract",
          "type": "address"
        },
        {
          "name": "_index",
          "type": "uint256"
        }
      ],
      "name": "childTokenByIndex",
      "outputs": [
        {
          "name": "childTokenId",
          "type": "uint256"
        }
      ],
      "payable": false,
      "stateMutability": "view",
      "type": "function"
    }
  ],
  "bytecode": "0x608060405260006002556040805190810160405280601c81526020017f68747470733a2f2f6170692e6d6f6b656e732e696f2f6d6f6b656e2f00000000815250600890805190602001906200005692919062000326565b506040805190810160405280600581526020017f2e6a736f6e00000000000000000000000000000000000000000000000000000081525060099080519060200190620000a492919062000326565b506000600b556000600d556601c6bf52634000600e556611c37937e08000600f55348015620000d257600080fd5b504360008190555033600460006101000a81548173ffffffffffffffffffffffffffffffffffffffff021916908373ffffffffffffffffffffffffffffffffffffffff160217905550620001557f47656e65736973000000000000000000000000000000000000000000000000006200015d640100000000026401000000009004565b5050620003d5565b6000806000600102836000191614151515620001e1576040517f08c379a00000000000000000000000000000000000000000000000000000000081526004018080602001828103825260188152602001807f6572614e616d6520697320656d70747920737472696e672e000000000000000081525060200191505060405180910390fd5b6000600c600085600019166000191681526020019081526020016000205414151562000275576040517f08c379a00000000000000000000000000000000000000000000000000000000081526004018080602001828103825260188152602001807f457261206e616d6520616c7265616479206578697374732e000000000000000081525060200191505060405180910390fd5b6002549050600b600081548092919060010191905055915082600a6000848152602001908152602001600020816000191690555060018201600c60008560001916600019168152602001908152602001600020819055507fdbca81c89f24217329d3998206c76a66dccc45fb18789e6b0bd64936c6d6b787828483604051808481526020018360001916600019168152602001828152602001935050505060405180910390a1818191509150915091565b828054600181600116156101000203166002900490600052602060002090601f016020900481019282601f106200036957805160ff19168380011785556200039a565b828001600101855582156200039a579182015b82811115620003995782518255916020019190600101906200037c565b5b509050620003a99190620003ad565b5090565b620003d291905b80821115620003ce576000816000905550600101620003b4565b5090565b90565b61860b80620003e56000396000f3006080604052600436106102f6576000357c0100000000000000000000000000000000000000000000000000000000900463ffffffff16806301ffc9a7146102fb57806306fdde031461035f578063081812fc146103ef578063095ea7b31461045c5780630d5a621b146104a957806312065fe014610520578063160b01a11461054b578063162094c4146105b65780631721ebba146105fb57806318160ddd1461064e578063191e521f146106795780631b5176631461077057806323b872dd1461079b5780632b513549146108085780632be45c78146108515780632f745c59146108d0578063319948ba146109315780633255905c1461098657806335b21ceb146109f757806337a2890d14610a5857806338334b8214610aa1578063393bbbf814610b1857806342842e0e14610bbe5780634ab0fc0814610c2b5780634b52195314610c665780634bc4e89214610cd15780634f558e7914610d1d5780634f6ccce714610d625780635195e8c514610da35780635680a3ad14610ddc5780635b72c3b714610e415780635bcc29d714610e8a5780636352211e14610ec55780636817c76c14610f3257806370a0823114610f5d57806372e09d4814610fb457806378e90190146110035780637ba05c1e1461109d578063870cbf3d146110ca5780638ae63d6d1461110f5780638cce49c91461113a5780638da5cb5b146111835780638da7d0b5146111da5780639287e81c1461121b57806395d89b411461127c578063973628f61461130c578063993783fc1461133f578063a22cb4651461138c578063a89196a6146113db578063aa67bc0414611424578063b30841d914611469578063b5d446ab14611494578063b88d4fde146114dd578063c1c64ecf14611562578063c87b56dd1461158d578063ced9f7c014611633578063d34047b6146116be578063d754f3d51461172e578063e985e9c514611759578063ea6520aa146117d4578063f0b9e5ba14611863578063f2fde38b1461191a578063f3fef3a31461195d578063fa462e95146119aa575b600080fd5b34801561030757600080fd5b5061034560048036038101908080357bffffffffffffffffffffffffffffffffffffffffffffffffffffffff191690602001909291905050506119d5565b604051808215151515815260200191505060405180910390f35b34801561036b57600080fd5b50610374611b07565b6040518080602001828103825283818151815260200191508051906020019080838360005b838110156103b4578082015181840152602081019050610399565b50505050905090810190601f1680156103e15780820380516001836020036101000a031916815260200191505b509250505060405180910390f35b3480156103fb57600080fd5b5061041a60048036038101908080359060200190929190505050611b44565b604051808273ffffffffffffffffffffffffffffffffffffffff1673ffffffffffffffffffffffffffffffffffffffff16815260200191505060405180910390f35b34801561046857600080fd5b506104a7600480360381019080803573ffffffffffffffffffffffffffffffffffffffff16906020019092919080359060200190929190505050611c41565b005b3480156104b557600080fd5b506104de6004803603810190808035906020019092919080359060200190929190505050611faf565b604051808273ffffffffffffffffffffffffffffffffffffffff1673ffffffffffffffffffffffffffffffffffffffff16815260200191505060405180910390f35b34801561052c57600080fd5b506105356120b7565b6040518082815260200191505060405180910390f35b34801561055757600080fd5b506105a060048036038101908080359060200190929190803573ffffffffffffffffffffffffffffffffffffffff169060200190929190803590602001909291905050506120d6565b6040518082815260200191505060405180910390f35b3480156105c257600080fd5b506105f960048036038101908080359060200190929190803590602001908201803590602001919091929391929390505050612239565b005b34801561060757600080fd5b506106346004803603810190808035906020019082018035906020019190919293919293905050506124e7565b604051808215151515815260200191505060405180910390f35b34801561065a57600080fd5b5061066361259a565b6040518082815260200191505060405180910390f35b34801561068557600080fd5b506106a4600480360381019080803590602001909291905050506125a4565b6040518080602001856000191660001916815260200184600019166000191681526020018373ffffffffffffffffffffffffffffffffffffffff1673ffffffffffffffffffffffffffffffffffffffff168152602001828103825286818151815260200191508051906020019080838360005b83811015610732578082015181840152602081019050610717565b50505050905090810190601f16801561075f5780820380516001836020036101000a031916815260200191505b509550505050505060405180910390f35b34801561077c57600080fd5b50610785612717565b6040518082815260200191505060405180910390f35b3480156107a757600080fd5b50610806600480360381019080803573ffffffffffffffffffffffffffffffffffffffff169060200190929190803573ffffffffffffffffffffffffffffffffffffffff1690602001909291908035906020019092919050505061271d565b005b34801561081457600080fd5b50610833600480360381019080803590602001909291905050506129c6565b60405180826000191660001916815260200191505060405180910390f35b34801561085d57600080fd5b50610892600480360381019080803573ffffffffffffffffffffffffffffffffffffffff169060200190929190505050612b05565b6040518082600a60200280838360005b838110156108bd5780820151818401526020810190506108a2565b5050505090500191505060405180910390f35b3480156108dc57600080fd5b5061091b600480360381019080803573ffffffffffffffffffffffffffffffffffffffff16906020019092919080359060200190929190505050612d09565b6040518082815260200191505060405180910390f35b34801561093d57600080fd5b50610970600480360381019080803590602001909291908035906020019092919080359060200190929190505050612e6a565b6040518082815260200191505060405180910390f35b34801561099257600080fd5b506109d3600480360381019080803560001916906020019092919080359060200190929190803590602001909291908035906020019092919050505061314f565b60405180848152602001838152602001828152602001935050505060405180910390f35b348015610a0357600080fd5b50610a4260048036038101908080359060200190929190803573ffffffffffffffffffffffffffffffffffffffff169060200190929190505050613451565b6040518082815260200191505060405180910390f35b348015610a6457600080fd5b50610a83600480360381019080803590602001909291905050506134af565b60405180826000191660001916815260200191505060405180910390f35b348015610aad57600080fd5b50610b16600480360381019080803573ffffffffffffffffffffffffffffffffffffffff16906020019092919080359060200190929190803573ffffffffffffffffffffffffffffffffffffffff16906020019092919080359060200190929190505050613545565b005b348015610b2457600080fd5b50610b4360048036038101908080359060200190929190505050613a15565b6040518080602001828103825283818151815260200191508051906020019080838360005b83811015610b83578082015181840152602081019050610b68565b50505050905090810190601f168015610bb05780820380516001836020036101000a031916815260200191505b509250505060405180910390f35b348015610bca57600080fd5b50610c29600480360381019080803573ffffffffffffffffffffffffffffffffffffffff169060200190929190803573ffffffffffffffffffffffffffffffffffffffff16906020019092919080359060200190929190505050613b4a565b005b348015610c3757600080fd5b50610c64600480360381019080803590602001908201803590602001919091929391929390505050613df3565b005b348015610c7257600080fd5b50610cbb60048036038101908080359060200190929190803573ffffffffffffffffffffffffffffffffffffffff16906020019092919080359060200190929190505050613ece565b6040518082815260200191505060405180910390f35b348015610cdd57600080fd5b50610d006004803603810190808035600019169060200190929190505050613f3b565b604051808381526020018281526020019250505060405180910390f35b348015610d2957600080fd5b50610d4860048036038101908080359060200190929190505050614015565b604051808215151515815260200191505060405180910390f35b348015610d6e57600080fd5b50610d8d60048036038101908080359060200190929190505050614023565b6040518082815260200191505060405180910390f35b348015610daf57600080fd5b50610db86140cc565b60405180848152602001838152602001828152602001935050505060405180910390f35b348015610de857600080fd5b50610e27600480360381019080803573ffffffffffffffffffffffffffffffffffffffff169060200190929190803590602001909291905050506140e5565b604051808215151515815260200191505060405180910390f35b348015610e4d57600080fd5b50610e6c600480360381019080803590602001909291905050506141aa565b60405180826000191660001916815260200191505060405180910390f35b348015610e9657600080fd5b50610ec36004803603810190808035906020019082018035906020019190919293919293905050506141d3565b005b348015610ed157600080fd5b50610ef0600480360381019080803590602001909291905050506142ae565b604051808273ffffffffffffffffffffffffffffffffffffffff1673ffffffffffffffffffffffffffffffffffffffff16815260200191505060405180910390f35b348015610f3e57600080fd5b50610f47614376565b6040518082815260200191505060405180910390f35b348015610f6957600080fd5b50610f9e600480360381019080803573ffffffffffffffffffffffffffffffffffffffff169060200190929190505050614388565b6040518082815260200191505060405180910390f35b348015610fc057600080fd5b50610fed600480360381019080803590602001908201803590602001919091929391929390505050614478565b6040518082815260200191505060405180910390f35b34801561100f57600080fd5b5061102e600480360381019080803590602001909291905050506145a7565b604051808560001916600019168152602001846000191660001916815260200183600019166000191681526020018273ffffffffffffffffffffffffffffffffffffffff1673ffffffffffffffffffffffffffffffffffffffff16815260200194505050505060405180910390f35b3480156110a957600080fd5b506110c86004803603810190808035906020019092919050505061479d565b005b3480156110d657600080fd5b506110f560048036038101908080359060200190929190505050614a45565b604051808215151515815260200191505060405180910390f35b34801561111b57600080fd5b50611124614af2565b6040518082815260200191505060405180910390f35b34801561114657600080fd5b5061116560048036038101908080359060200190929190505050614af8565b60405180826000191660001916815260200191505060405180910390f35b34801561118f57600080fd5b50611198614b9e565b604051808273ffffffffffffffffffffffffffffffffffffffff1673ffffffffffffffffffffffffffffffffffffffff16815260200191505060405180910390f35b3480156111e657600080fd5b5061120560048036038101908080359060200190929190505050614bc4565b6040518082815260200191505060405180910390f35b34801561122757600080fd5b50611266600480360381019080803573ffffffffffffffffffffffffffffffffffffffff16906020019092919080359060200190929190505050614be4565b6040518082815260200191505060405180910390f35b34801561128857600080fd5b50611291614d4c565b6040518080602001828103825283818151815260200191508051906020019080838360005b838110156112d15780820151818401526020810190506112b6565b50505050905090810190601f1680156112fe5780820380516001836020036101000a031916815260200191505b509250505060405180910390f35b34801561131857600080fd5b50611321614d89565b60405180826000191660001916815260200191505060405180910390f35b34801561134b57600080fd5b5061136e6004803603810190808035600019169060200190929190505050614da9565b60405180826000191660001916815260200191505060405180910390f35b34801561139857600080fd5b506113d9600480360381019080803573ffffffffffffffffffffffffffffffffffffffff169060200190929190803515159060200190929190505050614dd6565b005b3480156113e757600080fd5b5061140a6004803603810190808035600019169060200190929190505050614f7c565b604051808215151515815260200191505060405180910390f35b34801561143057600080fd5b506114536004803603810190808035600019169060200190929190505050614fa4565b6040518082815260200191505060405180910390f35b34801561147557600080fd5b5061147e61504a565b6040518082815260200191505060405180910390f35b3480156114a057600080fd5b506114bf60048036038101908080359060200190929190505050615054565b60405180826000191660001916815260200191505060405180910390f35b3480156114e957600080fd5b50611560600480360381019080803573ffffffffffffffffffffffffffffffffffffffff169060200190929190803573ffffffffffffffffffffffffffffffffffffffff169060200190929190803590602001909291908035906020019082018035906020019190919293919293905050506150fa565b005b34801561156e57600080fd5b506115776153c7565b6040518082815260200191505060405180910390f35b34801561159957600080fd5b506115b8600480360381019080803590602001909291905050506153cd565b6040518080602001828103825283818151815260200191508051906020019080838360005b838110156115f85780820151818401526020810190506115dd565b50505050905090810190601f1680156116255780820380516001836020036101000a031916815260200191505b509250505060405180910390f35b34801561163f57600080fd5b5061165e60048036038101908080359060200190929190505050615672565b60405180846000191660001916815260200183600019166000191681526020018273ffffffffffffffffffffffffffffffffffffffff1673ffffffffffffffffffffffffffffffffffffffff168152602001935050505060405180910390f35b611718600480360381019080803573ffffffffffffffffffffffffffffffffffffffff169060200190929190803590602001908201803590602001919091929391929390803560001916906020019092919050505061572f565b6040518082815260200191505060405180910390f35b34801561173a57600080fd5b50611743615ee1565b6040518082815260200191505060405180910390f35b34801561176557600080fd5b506117ba600480360381019080803573ffffffffffffffffffffffffffffffffffffffff169060200190929190803573ffffffffffffffffffffffffffffffffffffffff169060200190929190505050615eee565b604051808215151515815260200191505060405180910390f35b3480156117e057600080fd5b50611861600480360381019080803573ffffffffffffffffffffffffffffffffffffffff16906020019092919080359060200190929190803573ffffffffffffffffffffffffffffffffffffffff16906020019092919080359060200190929190803590602001908201803590602001919091929391929390505050615f82565b005b34801561186f57600080fd5b506118c6600480360381019080803573ffffffffffffffffffffffffffffffffffffffff16906020019092919080359060200190929190803590602001908201803590602001919091929391929390505050616395565b60405180827bffffffffffffffffffffffffffffffffffffffffffffffffffffffff19167bffffffffffffffffffffffffffffffffffffffffffffffffffffffff1916815260200191505060405180910390f35b34801561192657600080fd5b5061195b600480360381019080803573ffffffffffffffffffffffffffffffffffffffff1690602001909291905050506164c0565b005b34801561196957600080fd5b506119a8600480360381019080803573ffffffffffffffffffffffffffffffffffffffff16906020019092919080359060200190929190505050616605565b005b3480156119b657600080fd5b506119bf61679e565b6040518082815260200191505060405180910390f35b60006301ffc9a77c010000000000000000000000000000000000000000000000000000000002827bffffffffffffffffffffffffffffffffffffffffffffffffffffffff19161480611a6857506380ac58cd7c010000000000000000000000000000000000000000000000000000000002827bffffffffffffffffffffffffffffffffffffffffffffffffffffffff1916145b80611ab45750635b5e139f7c010000000000000000000000000000000000000000000000000000000002827bffffffffffffffffffffffffffffffffffffffffffffffffffffffff1916145b80611b00575063780e9d637c010000000000000000000000000000000000000000000000000000000002827bffffffffffffffffffffffffffffffffffffffffffffffffffffffff1916145b9050919050565b60606040805190810160405280600681526020017f4d6f6b656e730000000000000000000000000000000000000000000000000000815250905090565b60008060016000848152602001908152602001600020600101549050600073ffffffffffffffffffffffffffffffffffffffff168173ffffffffffffffffffffffffffffffffffffffff1614151515611c05576040517f08c379a000000000000000000000000000000000000000000000000000000000815260040180806020018281038252601b8152602001807f54686520746f6b656e496420646f6573206e6f742065786973742e000000000081525060200191505060405180910390fd5b6005600084815260200190815260200160002060009054906101000a900473ffffffffffffffffffffffffffffffffffffffff16915050919050565b600060016000838152602001908152602001600020600101549050600073ffffffffffffffffffffffffffffffffffffffff168173ffffffffffffffffffffffffffffffffffffffff1614151515611d01576040517f08c379a000000000000000000000000000000000000000000000000000000000815260040180806020018281038252601b8152602001807f54686520746f6b656e496420646f6573206e6f742065786973742e000000000081525060200191505060405180910390fd5b8073ffffffffffffffffffffffffffffffffffffffff163373ffffffffffffffffffffffffffffffffffffffff161480611dc15750600660008273ffffffffffffffffffffffffffffffffffffffff1673ffffffffffffffffffffffffffffffffffffffff16815260200190815260200160002060003373ffffffffffffffffffffffffffffffffffffffff1673ffffffffffffffffffffffffffffffffffffffff16815260200190815260200160002060009054906101000a900460ff165b1515611e5b576040517f08c379a000000000000000000000000000000000000000000000000000000000815260040180806020018281038252602d8152602001807f4d7573742062652074686520746f6b656e206f776e6572206f7220617070726f81526020017f766564206f70657261746f722e0000000000000000000000000000000000000081525060400191505060405180910390fd5b600073ffffffffffffffffffffffffffffffffffffffff166005600084815260200190815260200160002060009054906101000a900473ffffffffffffffffffffffffffffffffffffffff1673ffffffffffffffffffffffffffffffffffffffff16141580611ef75750600073ffffffffffffffffffffffffffffffffffffffff168373ffffffffffffffffffffffffffffffffffffffff1614155b15611faa57826005600084815260200190815260200160002060006101000a81548173ffffffffffffffffffffffffffffffffffffffff021916908373ffffffffffffffffffffffffffffffffffffffff160217905550818373ffffffffffffffffffffffffffffffffffffffff168273ffffffffffffffffffffffffffffffffffffffff167f8c5be1e5ebec7d5bd14f71427d1e84f3dd0314c0f7b2291e5b200ac8c7c3b92560405160405180910390a45b505050565b6000601160008481526020019081526020016000208054905082101515612064576040517f08c379a00000000000000000000000000000000000000000000000000000000081526004018080602001828103825260398152602001807f436f6e7472616374206164647265737320646f6573206e6f742065786973742081526020017f666f72207468697320746f6b656e20616e6420696e6465782e0000000000000081525060400191505060405180910390fd5b601160008481526020019081526020016000208281548110151561208457fe5b9060005260206000200160009054906101000a900473ffffffffffffffffffffffffffffffffffffffff16905092915050565b60003073ffffffffffffffffffffffffffffffffffffffff1631905090565b60006013600085815260200190815260200160002060008473ffffffffffffffffffffffffffffffffffffffff1673ffffffffffffffffffffffffffffffffffffffff16815260200190815260200160002080549050821015156121c8576040517f08c379a000000000000000000000000000000000000000000000000000000000815260040180806020018281038252603f8152602001807f546f6b656e20646f6573206e6f74206f776e2061206368696c6420746f6b656e81526020017f20617420636f6e7472616374206164647265737320616e6420696e6465782e0081525060400191505060405180910390fd5b6013600085815260200190815260200160002060008473ffffffffffffffffffffffffffffffffffffffff1673ffffffffffffffffffffffffffffffffffffffff1681526020019081526020016000208281548110151561222557fe5b906000526020600020015490509392505050565b82600060016000838152602001908152602001600020600101549050600073ffffffffffffffffffffffffffffffffffffffff168173ffffffffffffffffffffffffffffffffffffffff16141515156122fa576040517f08c379a000000000000000000000000000000000000000000000000000000000815260040180806020018281038252601b8152602001807f54686520746f6b656e496420646f6573206e6f742065786973742e000000000081525060200191505060405180910390fd5b8073ffffffffffffffffffffffffffffffffffffffff163373ffffffffffffffffffffffffffffffffffffffff16148061239257503373ffffffffffffffffffffffffffffffffffffffff166005600084815260200190815260200160002060009054906101000a900473ffffffffffffffffffffffffffffffffffffffff1673ffffffffffffffffffffffffffffffffffffffff16145b806124235750600660008273ffffffffffffffffffffffffffffffffffffffff1673ffffffffffffffffffffffffffffffffffffffff16815260200190815260200160002060003373ffffffffffffffffffffffffffffffffffffffff1673ffffffffffffffffffffffffffffffffffffffff16815260200190815260200160002060009054906101000a900460ff165b15156124bd576040517f08c379a00000000000000000000000000000000000000000000000000000000081526004018080602001828103825260388152602001807f4d7573742062652074686520746f6b656e206f776e6572206f7220617070726f81526020017f76656420746f2074616b65207468697320616374696f6e2e000000000000000081525060400191505060405180910390fd5b83836007600088815260200190815260200160002091906124df92919061843c565b505050505050565b600080601061252785858080601f0160208091040260200160405190810160405280939291908181526020018383808284378201915050505050506167a4565b6040518082805190602001908083835b60208310151561255c5780518252602082019150602081019050602083039250612537565b6001836020036101000a0380198251168184511680821785525050505050509050019150509081526020016040518091039020541415905092915050565b6000600254905090565b60606000806000600160008681526020019081526020016000206001015460010291506000600102826000191614151515612647576040517f08c379a000000000000000000000000000000000000000000000000000000000815260040180806020018281038252601b8152602001807f54686520746f6b656e496420646f6573206e6f742065786973742e000000000081525060200191505060405180910390fd5b6001600086815260200190815260200160002060000161266683614da9565b838460019004838054600181600116156101000203166002900480601f0160208091040260200160405190810160405280929190818152602001828054600181600116156101000203166002900480156127015780601f106126d657610100808354040283529160200191612701565b820191906000526020600020905b8154815290600101906020018083116126e457829003601f168201915b5050505050935093509350935093509193509193565b600d5481565b80600060016000838152602001908152602001600020600101549050600073ffffffffffffffffffffffffffffffffffffffff168173ffffffffffffffffffffffffffffffffffffffff16141515156127de576040517f08c379a000000000000000000000000000000000000000000000000000000000815260040180806020018281038252601b8152602001807f54686520746f6b656e496420646f6573206e6f742065786973742e000000000081525060200191505060405180910390fd5b8073ffffffffffffffffffffffffffffffffffffffff163373ffffffffffffffffffffffffffffffffffffffff16148061287657503373ffffffffffffffffffffffffffffffffffffffff166005600084815260200190815260200160002060009054906101000a900473ffffffffffffffffffffffffffffffffffffffff1673ffffffffffffffffffffffffffffffffffffffff16145b806129075750600660008273ffffffffffffffffffffffffffffffffffffffff1673ffffffffffffffffffffffffffffffffffffffff16815260200190815260200160002060003373ffffffffffffffffffffffffffffffffffffffff1673ffffffffffffffffffffffffffffffffffffffff16815260200190815260200160002060009054906101000a900460ff165b15156129a1576040517f08c379a00000000000000000000000000000000000000000000000000000000081526004018080602001828103825260388152602001807f4d7573742062652074686520746f6b656e206f776e6572206f7220617070726f81526020017f76656420746f2074616b65207468697320616374696f6e2e000000000000000081525060400191505060405180910390fd5b6129bf85858560206040519081016040528060008152506000616bd8565b5050505050565b60006060600160008481526020019081526020016000206000018054600181600116156101000203166002900480601f016020809104026020016040519081016040528092919081815260200182805460018160011615610100020316600290048015612a745780601f10612a4957610100808354040283529160200191612a74565b820191906000526020600020905b815481529060010190602001808311612a5757829003601f168201915b505050505090506000815114151515612af5576040517f08c379a000000000000000000000000000000000000000000000000000000000815260040180806020018281038252601b8152602001807f54686520746f6b656e496420646f6573206e6f742065786973742e000000000081525060200191505060405180910390fd5b6020810151915081915050919050565b612b0d6184bc565b612b156184bc565b600080600073ffffffffffffffffffffffffffffffffffffffff168573ffffffffffffffffffffffffffffffffffffffff1614151515612bbd576040517f08c379a000000000000000000000000000000000000000000000000000000000815260040180806020018281038252601e8152602001807f4f776e65722063616e6e6f7420626520746865203020616464726573732e000081525060200191505060405180910390fd5b600a9150600a600360008773ffffffffffffffffffffffffffffffffffffffff1673ffffffffffffffffffffffffffffffffffffffff168152602001908152602001600020805490501015612c5557600360008673ffffffffffffffffffffffffffffffffffffffff1673ffffffffffffffffffffffffffffffffffffffff16815260200190815260200160002080549050600a0391505b600090505b81811015612cfe57600360008673ffffffffffffffffffffffffffffffffffffffff1673ffffffffffffffffffffffffffffffffffffffff16815260200190815260200160002081815481101515612cae57fe5b90600052602060002090600891828204019190066004029054906101000a900463ffffffff1663ffffffff168382600a81101515612ce857fe5b6020020181815250508080600101915050612c5a565b829350505050919050565b6000600360008473ffffffffffffffffffffffffffffffffffffffff1673ffffffffffffffffffffffffffffffffffffffff1681526020019081526020016000208054905082101515612dea576040517f08c379a00000000000000000000000000000000000000000000000000000000081526004018080602001828103825260298152602001807f4f776e657220646f6573206e6f74206f776e2061206d6f6b656e20617420746881526020017f697320696e6465782e000000000000000000000000000000000000000000000081525060400191505060405180910390fd5b600360008473ffffffffffffffffffffffffffffffffffffffff1673ffffffffffffffffffffffffffffffffffffffff16815260200190815260200160002082815481101515612e3657fe5b90600052602060002090600891828204019190066004029054906101000a900463ffffffff1663ffffffff16905092915050565b600080600460009054906101000a900473ffffffffffffffffffffffffffffffffffffffff1673ffffffffffffffffffffffffffffffffffffffff163373ffffffffffffffffffffffffffffffffffffffff16141515612f32576040517f08c379a00000000000000000000000000000000000000000000000000000000081526004018080602001828103825260128152602001807f4d75737420626520746865206f776e65722e000000000000000000000000000081525060200191505060405180910390fd5b69021e19e0c9bab240000085101515612fd9576040517f08c379a000000000000000000000000000000000000000000000000000000000815260040180806020018281038252602d8152602001807f6d696e74537465705072696365206d757374206265206c657373207468616e2081526020017f31302c3030302065746865722e0000000000000000000000000000000000000081525060400191505060405180910390fd5b83600d8190555084600e8190555082600f81905550846002540290508381101515156130b9576040517f08c379a00000000000000000000000000000000000000000000000000000000081526004018080602001828103825260508152602001807f286d6f6b656e734c656e677468202a206d696e7453746570507269636529206d81526020017f7573742062652067726561746572207468616e206f7220657175616c20746f2081526020017f6d696e7450726963654f66667365742e0000000000000000000000000000000081525060600191505060405180910390fd5b83810391507fe7fa8322b6a3ac980f1f181bb0260c5378e54c9c94765e0fd3101dc96d0383b2828686866040518085815260200184815260200183815260200182815260200194505050505060405180910390a17fc748a3ddfde710af4b11e2cce12c9480b1e5c5687ac98250bc6a5e70d9007618826040518082815260200191505060405180910390a1819150509392505050565b600080600080600460009054906101000a900473ffffffffffffffffffffffffffffffffffffffff1673ffffffffffffffffffffffffffffffffffffffff163373ffffffffffffffffffffffffffffffffffffffff1614151561321a576040517f08c379a00000000000000000000000000000000000000000000000000000000081526004018080602001828103825260128152602001807f4d75737420626520746865206f776e65722e000000000000000000000000000081525060200191505060405180910390fd5b69021e19e0c9bab2400000871015156132c1576040517f08c379a000000000000000000000000000000000000000000000000000000000815260040180806020018281038252602d8152602001807f6d696e74537465705072696365206d757374206265206c657373207468616e2081526020017f31302c3030302065746865722e0000000000000000000000000000000000000081525060400191505060405180910390fd5b85600d8190555086600e8190555084600f81905550866002540290508581101515156133a1576040517f08c379a00000000000000000000000000000000000000000000000000000000081526004018080602001828103825260508152602001807f286d6f6b656e734c656e677468202a206d696e7453746570507269636529206d81526020017f7573742062652067726561746572207468616e206f7220657175616c20746f2081526020017f6d696e7450726963654f66667365742e0000000000000000000000000000000081525060600191505060405180910390fd5b85810391507fe7fa8322b6a3ac980f1f181bb0260c5378e54c9c94765e0fd3101dc96d0383b2828888886040518085815260200184815260200183815260200182815260200194505050505060405180910390a17fc748a3ddfde710af4b11e2cce12c9480b1e5c5687ac98250bc6a5e70d9007618826040518082815260200191505060405180910390a1613435886175fb565b8094508195505050838383935093509350509450945094915050565b60006013600084815260200190815260200160002060008373ffffffffffffffffffffffffffffffffffffffff1673ffffffffffffffffffffffffffffffffffffffff16815260200190815260200160002080549050905092915050565b6000600b548210151561352a576040517f08c379a00000000000000000000000000000000000000000000000000000000081526004018080602001828103825260158152602001807f4e6f20657261206174207468697320696e6465782e000000000000000000000081525060200191505060405180910390fd5b600a6000838152602001908152602001600020549050919050565b82600060016000838152602001908152602001600020600101549050600073ffffffffffffffffffffffffffffffffffffffff168173ffffffffffffffffffffffffffffffffffffffff1614151515613606576040517f08c379a000000000000000000000000000000000000000000000000000000000815260040180806020018281038252601b8152602001807f54686520746f6b656e496420646f6573206e6f742065786973742e000000000081525060200191505060405180910390fd5b8073ffffffffffffffffffffffffffffffffffffffff163373ffffffffffffffffffffffffffffffffffffffff16148061369e57503373ffffffffffffffffffffffffffffffffffffffff166005600084815260200190815260200160002060009054906101000a900473ffffffffffffffffffffffffffffffffffffffff1673ffffffffffffffffffffffffffffffffffffffff16145b8061372f5750600660008273ffffffffffffffffffffffffffffffffffffffff1673ffffffffffffffffffffffffffffffffffffffff16815260200190815260200160002060003373ffffffffffffffffffffffffffffffffffffffff1673ffffffffffffffffffffffffffffffffffffffff16815260200190815260200160002060009054906101000a900460ff165b15156137c9576040517f08c379a00000000000000000000000000000000000000000000000000000000081526004018080602001828103825260388152602001807f4d7573742062652074686520746f6b656e206f776e6572206f7220617070726f81526020017f76656420746f2074616b65207468697320616374696f6e2e000000000000000081525060400191505060405180910390fd5b6137d48585856177c2565b8373ffffffffffffffffffffffffffffffffffffffff1660405180807f736166655472616e7366657246726f6d28616464726573732c6164647265737381526020017f2c75696e74323536290000000000000000000000000000000000000000000000815250602901905060405180910390207c010000000000000000000000000000000000000000000000000000000090043088866040518463ffffffff167c0100000000000000000000000000000000000000000000000000000000028152600401808473ffffffffffffffffffffffffffffffffffffffff1673ffffffffffffffffffffffffffffffffffffffff1681526020018373ffffffffffffffffffffffffffffffffffffffff1673ffffffffffffffffffffffffffffffffffffffff16815260200182815260200193505050506000604051808303816000875af192505050151561392557600080fd5b828673ffffffffffffffffffffffffffffffffffffffff167ff8f48aed51fd87548f37d2c9ae91769e79684dbc788a166e4b427e57e7d5106460006040519080825280601f01601f1916602001820160405280156139925781602001602082028038833980820191505090505b506040518080602001828103825283818151815260200191508051906020019080838360005b838110156139d35780820151818401526020810190506139b8565b50505050905090810190601f168015613a005780820380516001836020036101000a031916815260200191505b509250505060405180910390a3505050505050565b6060600160008381526020019081526020016000206000018054600181600116156101000203166002900480601f016020809104026020016040519081016040528092919081815260200182805460018160011615610100020316600290048015613ac15780601f10613a9657610100808354040283529160200191613ac1565b820191906000526020600020905b815481529060010190602001808311613aa457829003601f168201915b505050505090506000815114151515613b42576040517f08c379a000000000000000000000000000000000000000000000000000000000815260040180806020018281038252601b8152602001807f54686520746f6b656e496420646f6573206e6f742065786973742e000000000081525060200191505060405180910390fd5b809050919050565b80600060016000838152602001908152602001600020600101549050600073ffffffffffffffffffffffffffffffffffffffff168173ffffffffffffffffffffffffffffffffffffffff1614151515613c0b576040517f08c379a000000000000000000000000000000000000000000000000000000000815260040180806020018281038252601b8152602001807f54686520746f6b656e496420646f6573206e6f742065786973742e000000000081525060200191505060405180910390fd5b8073ffffffffffffffffffffffffffffffffffffffff163373ffffffffffffffffffffffffffffffffffffffff161480613ca357503373ffffffffffffffffffffffffffffffffffffffff166005600084815260200190815260200160002060009054906101000a900473ffffffffffffffffffffffffffffffffffffffff1673ffffffffffffffffffffffffffffffffffffffff16145b80613d345750600660008273ffffffffffffffffffffffffffffffffffffffff1673ffffffffffffffffffffffffffffffffffffffff16815260200190815260200160002060003373ffffffffffffffffffffffffffffffffffffffff1673ffffffffffffffffffffffffffffffffffffffff16815260200190815260200160002060009054906101000a900460ff165b1515613dce576040517f08c379a00000000000000000000000000000000000000000000000000000000081526004018080602001828103825260388152602001807f4d7573742062652074686520746f6b656e206f776e6572206f7220617070726f81526020017f76656420746f2074616b65207468697320616374696f6e2e000000000000000081525060400191505060405180910390fd5b613dec85858560206040519081016040528060008152506001616bd8565b5050505050565b600460009054906101000a900473ffffffffffffffffffffffffffffffffffffffff1673ffffffffffffffffffffffffffffffffffffffff163373ffffffffffffffffffffffffffffffffffffffff16141515613eb8576040517f08c379a00000000000000000000000000000000000000000000000000000000081526004018080602001828103825260128152602001807f4d75737420626520746865206f776e65722e000000000000000000000000000081525060200191505060405180910390fd5b818160099190613ec992919061843c565b505050565b60006014600085815260200190815260200160002060008473ffffffffffffffffffffffffffffffffffffffff1673ffffffffffffffffffffffffffffffffffffffff16815260200190815260200160002060008381526020019081526020016000205490509392505050565b600080600460009054906101000a900473ffffffffffffffffffffffffffffffffffffffff1673ffffffffffffffffffffffffffffffffffffffff163373ffffffffffffffffffffffffffffffffffffffff16141515614003576040517f08c379a00000000000000000000000000000000000000000000000000000000081526004018080602001828103825260128152602001807f4d75737420626520746865206f776e65722e000000000000000000000000000081525060200191505060405180910390fd5b61400c836175fb565b91509150915091565b600060025482109050919050565b6000600254821015156140c4576040517f08c379a00000000000000000000000000000000000000000000000000000000081526004018080602001828103825260258152602001807f546f6b656e4964206174207468697320696e64657820646f6573206e6f74206581526020017f786973742e00000000000000000000000000000000000000000000000000000081525060400191505060405180910390fd5b819050919050565b6000806000600254600e54600d54925092509250909192565b600080601560008573ffffffffffffffffffffffffffffffffffffffff1673ffffffffffffffffffffffffffffffffffffffff168152602001908152602001600020600084815260200190815260200160002054905060006014600083815260200190815260200160002060008673ffffffffffffffffffffffffffffffffffffffff1673ffffffffffffffffffffffffffffffffffffffff168152602001908152602001600020600085815260200190815260200160002054141591505092915050565b6000600a600061ffff60b0859060020a9004168152602001908152602001600020549050919050565b600460009054906101000a900473ffffffffffffffffffffffffffffffffffffffff1673ffffffffffffffffffffffffffffffffffffffff163373ffffffffffffffffffffffffffffffffffffffff16141515614298576040517f08c379a00000000000000000000000000000000000000000000000000000000081526004018080602001828103825260128152602001807f4d75737420626520746865206f776e65722e000000000000000000000000000081525060200191505060405180910390fd5b8181600891906142a992919061843c565b505050565b600060016000838152602001908152602001600020600101549050600073ffffffffffffffffffffffffffffffffffffffff168173ffffffffffffffffffffffffffffffffffffffff161415151561436e576040517f08c379a000000000000000000000000000000000000000000000000000000000815260040180806020018281038252601b8152602001807f54686520746f6b656e496420646f6573206e6f742065786973742e000000000081525060200191505060405180910390fd5b809050919050565b6000600d54600e546002540203905090565b60008073ffffffffffffffffffffffffffffffffffffffff168273ffffffffffffffffffffffffffffffffffffffff161415151561442e576040517f08c379a000000000000000000000000000000000000000000000000000000000815260040180806020018281038252601e8152602001807f4f776e65722063616e6e6f7420626520746865203020616464726573732e000081525060200191505060405180910390fd5b600360008373ffffffffffffffffffffffffffffffffffffffff1673ffffffffffffffffffffffffffffffffffffffff168152602001908152602001600020805490509050919050565b600060106144b784848080601f0160208091040260200160405190810160405280939291908181526020018383808284378201915050505050506167a4565b6040518082805190602001908083835b6020831015156144ec57805182526020820191506020810190506020830392506144c7565b6001836020036101000a03801982511681845116808217855250505050505090500191505090815260200160405180910390205490506000811415151561459b576040517f08c379a000000000000000000000000000000000000000000000000000000000815260040180806020018281038252601f8152602001807f4e6f206d6f6b656e2065786973747320776974682074686973206e616d652e0081525060200191505060405180910390fd5b60018103905092915050565b600080600080606060016000878152602001908152602001600020600101546001029250600060010283600019161415151561464b576040517f08c379a000000000000000000000000000000000000000000000000000000000815260040180806020018281038252601b8152602001807f54686520746f6b656e496420646f6573206e6f742065786973742e000000000081525060200191505060405180910390fd5b600160008781526020019081526020016000206000018054600181600116156101000203166002900480601f0160208091040260200160405190810160405280929190818152602001828054600181600116156101000203166002900480156146f55780601f106146ca576101008083540402835291602001916146f5565b820191906000526020600020905b8154815290600101906020018083116146d857829003601f168201915b505050505090506000815114151515614776576040517f08c379a000000000000000000000000000000000000000000000000000000000815260040180806020018281038252601b8152602001807f54686520746f6b656e496420646f6573206e6f742065786973742e000000000081525060200191505060405180910390fd5b602081015194508461478784614da9565b8485600190049450945094509450509193509193565b80600060016000838152602001908152602001600020600101549050600073ffffffffffffffffffffffffffffffffffffffff168173ffffffffffffffffffffffffffffffffffffffff161415151561485e576040517f08c379a000000000000000000000000000000000000000000000000000000000815260040180806020018281038252601b8152602001807f54686520746f6b656e496420646f6573206e6f742065786973742e000000000081525060200191505060405180910390fd5b8073ffffffffffffffffffffffffffffffffffffffff163373ffffffffffffffffffffffffffffffffffffffff1614806148f657503373ffffffffffffffffffffffffffffffffffffffff166005600084815260200190815260200160002060009054906101000a900473ffffffffffffffffffffffffffffffffffffffff1673ffffffffffffffffffffffffffffffffffffffff16145b806149875750600660008273ffffffffffffffffffffffffffffffffffffffff1673ffffffffffffffffffffffffffffffffffffffff16815260200190815260200160002060003373ffffffffffffffffffffffffffffffffffffffff1673ffffffffffffffffffffffffffffffffffffffff16815260200190815260200160002060009054906101000a900460ff165b1515614a21576040517f08c379a00000000000000000000000000000000000000000000000000000000081526004018080602001828103825260388152602001807f4d7573742062652074686520746f6b656e206f776e6572206f7220617070726f81526020017f76656420746f2074616b65207468697320616374696f6e2e000000000000000081525060400191505060405180910390fd5b600760008481526020019081526020016000206000614a4091906184e0565b505050565b600060025482101515614ac0576040517f08c379a000000000000000000000000000000000000000000000000000000000815260040180806020018281038252601b8152602001807f54686520746f6b656e496420646f6573206e6f742065786973742e000000000081525060200191505060405180910390fd5b600060076000848152602001908152602001600020805460018160011615610100020316600290049050119050919050565b60005481565b6000600160008381526020019081526020016000206001015460010290506000600102816000191614151515614b96576040517f08c379a000000000000000000000000000000000000000000000000000000000815260040180806020018281038252601b8152602001807f54686520746f6b656e496420646f6573206e6f742065786973742e000000000081525060200191505060405180910390fd5b809050919050565b600460009054906101000a900473ffffffffffffffffffffffffffffffffffffffff1681565b600060116000838152602001908152602001600020805490509050919050565b6000601560008473ffffffffffffffffffffffffffffffffffffffff1673ffffffffffffffffffffffffffffffffffffffff16815260200190815260200160002060008381526020019081526020016000205490506000811415614d435760006014600083815260200190815260200160002060008573ffffffffffffffffffffffffffffffffffffffff1673ffffffffffffffffffffffffffffffffffffffff16815260200190815260200160002060008481526020019081526020016000205414151515614d42576040517f08c379a00000000000000000000000000000000000000000000000000000000081526004018080602001828103825260278152602001807f4368696c6420746f6b656e206973206e6f74206f776e656420627920616e792081526020017f746f6b656e732e0000000000000000000000000000000000000000000000000081525060400191505060405180910390fd5b5b80905092915050565b60606040805190810160405280600381526020017f4d4b4e0000000000000000000000000000000000000000000000000000000000815250905090565b6000600a60006001600b5403815260200190815260200160002054905090565b6000600a600061ffff60b085600190049060020a9004168152602001908152602001600020549050919050565b600073ffffffffffffffffffffffffffffffffffffffff168273ffffffffffffffffffffffffffffffffffffffff1614151515614e7b576040517f08c379a00000000000000000000000000000000000000000000000000000000081526004018080602001828103825260178152602001807f43616e6e6f74207365742061203020616464726573732e00000000000000000081525060200191505060405180910390fd5b80600660003373ffffffffffffffffffffffffffffffffffffffff1673ffffffffffffffffffffffffffffffffffffffff16815260200190815260200160002060008473ffffffffffffffffffffffffffffffffffffffff1673ffffffffffffffffffffffffffffffffffffffff16815260200190815260200160002060006101000a81548160ff0219169083151502179055508173ffffffffffffffffffffffffffffffffffffffff163373ffffffffffffffffffffffffffffffffffffffff167f17307eab39ab6107e8899845ad3d59bd9653f200f220920489ca2b5937696c3183604051808215151515815260200191505060405180910390a35050565b600080600c600084600019166000191681526020019081526020016000205414159050919050565b600080600c600084600019166000191681526020019081526020016000205490506000811415151561503e576040517f08c379a000000000000000000000000000000000000000000000000000000000815260040180806020018281038252601d8152602001807f4e6f206572612065786973747320776974682074686973206e616d652e00000081525060200191505060405180910390fd5b60018103915050919050565b6000600b54905090565b60008060016000848152602001908152602001600020600101549050600081141515156150e9576040517f08c379a000000000000000000000000000000000000000000000000000000000815260040180806020018281038252601b8152602001807f54686520746f6b656e496420646f6573206e6f742065786973742e000000000081525060200191505060405180910390fd5b6150f2816141aa565b915050919050565b82600060016000838152602001908152602001600020600101549050600073ffffffffffffffffffffffffffffffffffffffff168173ffffffffffffffffffffffffffffffffffffffff16141515156151bb576040517f08c379a000000000000000000000000000000000000000000000000000000000815260040180806020018281038252601b8152602001807f54686520746f6b656e496420646f6573206e6f742065786973742e000000000081525060200191505060405180910390fd5b8073ffffffffffffffffffffffffffffffffffffffff163373ffffffffffffffffffffffffffffffffffffffff16148061525357503373ffffffffffffffffffffffffffffffffffffffff166005600084815260200190815260200160002060009054906101000a900473ffffffffffffffffffffffffffffffffffffffff1673ffffffffffffffffffffffffffffffffffffffff16145b806152e45750600660008273ffffffffffffffffffffffffffffffffffffffff1673ffffffffffffffffffffffffffffffffffffffff16815260200190815260200160002060003373ffffffffffffffffffffffffffffffffffffffff1673ffffffffffffffffffffffffffffffffffffffff16815260200190815260200160002060009054906101000a900460ff165b151561537e576040517f08c379a00000000000000000000000000000000000000000000000000000000081526004018080602001828103825260388152602001807f4d7573742062652074686520746f6b656e206f776e6572206f7220617070726f81526020017f76656420746f2074616b65207468697320616374696f6e2e000000000000000081525060400191505060405180910390fd5b6153be87878787878080601f0160208091040260200160405190810160405280939291908181526020018383808284378201915050505050506001616bd8565b50505050505050565b600f5481565b606060025482101515615448576040517f08c379a000000000000000000000000000000000000000000000000000000000815260040180806020018281038252601b8152602001807f54686520746f6b656e496420646f6573206e6f742065786973742e000000000081525060200191505060405180910390fd5b60006007600084815260200190815260200160002080546001816001161561010002031660029004905014156155be576155b760088054600181600116156101000203166002900480601f0160208091040260200160405190810160405280929190818152602001828054600181600116156101000203166002900480156155115780601f106154e657610100808354040283529160200191615511565b820191906000526020600020905b8154815290600101906020018083116154f457829003601f168201915b50505050508360098054600181600116156101000203166002900480601f0160208091040260200160405190810160405280929190818152602001828054600181600116156101000203166002900480156155ad5780601f10615582576101008083540402835291602001916155ad565b820191906000526020600020905b81548152906001019060200180831161559057829003601f168201915b5050505050617d67565b905061566d565b600760008381526020019081526020016000208054600181600116156101000203166002900480601f0160208091040260200160405190810160405280929190818152602001828054600181600116156101000203166002900480156156655780601f1061563a57610100808354040283529160200191615665565b820191906000526020600020905b81548152906001019060200180831161564857829003601f168201915b505050505090505b919050565b6000806000600160008581526020019081526020016000206001015460010291506000600102826000191614151515615713576040517f08c379a000000000000000000000000000000000000000000000000000000000815260040180806020018281038252601b8152602001807f54686520746f6b656e496420646f6573206e6f742065786973742e000000000081525060200191505060405180910390fd5b61571c82614da9565b8283600190049250925092509193909250565b6000806000806000606060008060008073ffffffffffffffffffffffffffffffffffffffff168d73ffffffffffffffffffffffffffffffffffffffff16141515156157e2576040517f08c379a000000000000000000000000000000000000000000000000000000000815260040180806020018281038252601e8152602001807f4f776e65722063616e6e6f7420626520746865203020616464726573732e000081525060200191505060405180910390fd5b6002600081548092919060010191905055985064010000000089101515615897576040517f08c379a00000000000000000000000000000000000000000000000000000000081526004018080602001828103825260298152602001807f4f6e6c7920342c3239342c3936372c323936206d6f6b656e732063616e20626581526020017f20637265617465642e000000000000000000000000000000000000000000000081525060400191505060405180910390fd5b600e549750600f549650600d54888a020395508594508534101561596357858711806158c557508686033410155b151561595f576040517f08c379a00000000000000000000000000000000000000000000000000000000081526004018080602001828103825260248152602001807f50616964206574686572206973206c6f776572207468616e206d696e7420707281526020017f6963652e0000000000000000000000000000000000000000000000000000000081525060400191505060405180910390fd5b3494505b61599e8c8c8080601f0160208091040260200160405190810160405280939291908181526020018383808284378201915050505050506167a4565b935060006010856040518082805190602001908083835b6020831015156159da57805182526020820191506020810190506020830392506159b5565b6001836020036101000a038019825116818451168082178552505050505050905001915050908152602001604051809103902054141515615a83576040517f08c379a000000000000000000000000000000000000000000000000000000000815260040180806020018281038252601a8152602001807f4d6f6b656e206e616d6520616c7265616479206578697374732e00000000000081525060200191505060405180910390fd5b6001600b54039250600360008e73ffffffffffffffffffffffffffffffffffffffff1673ffffffffffffffffffffffffffffffffffffffff1681526020019081526020016000208054905091506201000082101515615b70576040517f08c379a000000000000000000000000000000000000000000000000000000000815260040180806020018281038252603f8152602001807f416e2073696e676c65206f776e657220616464726573732063616e6e6f74207081526020017f6f7373657373206d6f7265207468616e2036352c353336206d6f6b656e732e0081525060400191505060405180910390fd5b8c73ffffffffffffffffffffffffffffffffffffffff1660a0839060020a0260b0859060020a027fffffffffffffffff0000000000000000000000000000000000000000000000008d600190041617171790508b8b600160008c81526020019081526020016000206000019190615be892919061843c565b5080600160008b815260200190815260200160002060010181905550600189016010856040518082805190602001908083835b602083101515615c405780518252602082019150602081019050602083039250615c1b565b6001836020036101000a038019825116818451168082178552505050505050905001915050908152602001604051809103902081905550600360008e73ffffffffffffffffffffffffffffffffffffffff1673ffffffffffffffffffffffffffffffffffffffff16815260200190815260200160002089908060018154018082558091505090600182039060005260206000209060089182820401919006600402909192909190916101000a81548163ffffffff021916908363ffffffff16021790555050888d73ffffffffffffffffffffffffffffffffffffffff16600073ffffffffffffffffffffffffffffffffffffffff167fddf252ad1be2c89b69c2b068fc378daa952ba7f163c4a11628f55a4df523b3ef60405160405180910390a4600a600084815260200190815260200160002054600019168d73ffffffffffffffffffffffffffffffffffffffff163073ffffffffffffffffffffffffffffffffffffffff167f4f5deb80fdeba40173210414430f34a873aa31bd90b2e16d5ef16390381f6a3f8f8f866001028f8c60405180806020018560001916600019168152602001848152602001807f457468657200000000000000000000000000000000000000000000000000000081525060200183815260200182810382528787828181526020019250808284378201915050965050505050505060405180910390a47fc748a3ddfde710af4b11e2cce12c9480b1e5c5687ac98250bc6a5e70d90076188887016040518082815260200191505060405180910390a185341115615ece573373ffffffffffffffffffffffffffffffffffffffff166108fc8734039081150290604051600060405180830381858888f19350505050158015615ecc573d6000803e3d6000fd5b505b8898505050505050505050949350505050565b60006001600b5403905090565b6000600660008473ffffffffffffffffffffffffffffffffffffffff1673ffffffffffffffffffffffffffffffffffffffff16815260200190815260200160002060008373ffffffffffffffffffffffffffffffffffffffff1673ffffffffffffffffffffffffffffffffffffffff16815260200190815260200160002060009054906101000a900460ff16905092915050565b84600060016000838152602001908152602001600020600101549050600073ffffffffffffffffffffffffffffffffffffffff168173ffffffffffffffffffffffffffffffffffffffff1614151515616043576040517f08c379a000000000000000000000000000000000000000000000000000000000815260040180806020018281038252601b8152602001807f54686520746f6b656e496420646f6573206e6f742065786973742e000000000081525060200191505060405180910390fd5b8073ffffffffffffffffffffffffffffffffffffffff163373ffffffffffffffffffffffffffffffffffffffff1614806160db57503373ffffffffffffffffffffffffffffffffffffffff166005600084815260200190815260200160002060009054906101000a900473ffffffffffffffffffffffffffffffffffffffff1673ffffffffffffffffffffffffffffffffffffffff16145b8061616c5750600660008273ffffffffffffffffffffffffffffffffffffffff1673ffffffffffffffffffffffffffffffffffffffff16815260200190815260200160002060003373ffffffffffffffffffffffffffffffffffffffff1673ffffffffffffffffffffffffffffffffffffffff16815260200190815260200160002060009054906101000a900460ff165b1515616206576040517f08c379a00000000000000000000000000000000000000000000000000000000081526004018080602001828103825260388152602001807f4d7573742062652074686520746f6b656e206f776e6572206f7220617070726f81526020017f76656420746f2074616b65207468697320616374696f6e2e000000000000000081525060400191505060405180910390fd5b6162118787876177c2565b8573ffffffffffffffffffffffffffffffffffffffff1663b88d4fde308a8888886040518663ffffffff167c0100000000000000000000000000000000000000000000000000000000028152600401808673ffffffffffffffffffffffffffffffffffffffff1673ffffffffffffffffffffffffffffffffffffffff1681526020018573ffffffffffffffffffffffffffffffffffffffff1673ffffffffffffffffffffffffffffffffffffffff16815260200184815260200180602001828103825284848281815260200192508082843782019150509650505050505050600060405180830381600087803b15801561630a57600080fd5b505af115801561631e573d6000803e3d6000fd5b50505050848873ffffffffffffffffffffffffffffffffffffffff167ff8f48aed51fd87548f37d2c9ae91769e79684dbc788a166e4b427e57e7d510648686604051808060200182810382528484828181526020019250808284378201915050935050505060405180910390a35050505050505050565b60008060008484905011151561645f576040517f08c379a00000000000000000000000000000000000000000000000000000000081526004018080602001828103825260468152602001807f5f64617461206d75737420636f6e7461696e207468652075696e74323536207481526020017f6f6b656e496420746f207472616e7366657220746865206368696c6420746f6b81526020017f656e20746f2e000000000000000000000000000000000000000000000000000081525060600191505060405180910390fd5b60843590506020848490501015616485576008848490500261010003819060020a900490505b61649186823388618140565b63f0b9e5ba7c010000000000000000000000000000000000000000000000000000000002915050949350505050565b600460009054906101000a900473ffffffffffffffffffffffffffffffffffffffff1673ffffffffffffffffffffffffffffffffffffffff163373ffffffffffffffffffffffffffffffffffffffff16141515616585576040517f08c379a00000000000000000000000000000000000000000000000000000000081526004018080602001828103825260128152602001807f4d75737420626520746865206f776e65722e000000000000000000000000000081525060200191505060405180910390fd5b600073ffffffffffffffffffffffffffffffffffffffff168173ffffffffffffffffffffffffffffffffffffffff16141515156165c157600080fd5b80600460006101000a81548173ffffffffffffffffffffffffffffffffffffffff021916908373ffffffffffffffffffffffffffffffffffffffff16021790555050565b6000600460009054906101000a900473ffffffffffffffffffffffffffffffffffffffff1673ffffffffffffffffffffffffffffffffffffffff163373ffffffffffffffffffffffffffffffffffffffff161415156166cc576040517f08c379a00000000000000000000000000000000000000000000000000000000081526004018080602001828103825260128152602001807f4d75737420626520746865206f776e65722e000000000000000000000000000081525060200191505060405180910390fd5b3090508073ffffffffffffffffffffffffffffffffffffffff1631821115616751578273ffffffffffffffffffffffffffffffffffffffff166108fc8273ffffffffffffffffffffffffffffffffffffffff16319081150290604051600060405180830381858888f1935050505015801561674b573d6000803e3d6000fd5b50616799565b8273ffffffffffffffffffffffffffffffffffffffff166108fc839081150290604051600060405180830381858888f19350505050158015616797573d6000803e3d6000fd5b505b505050565b600e5481565b60608060008060008593508351925060008314151515616852576040517f08c379a00000000000000000000000000000000000000000000000000000000081526004018080602001828103825260258152602001807f4d6f6b656e206e616d652063616e6e6f7420626520616e20656d70747920737481526020017f72696e672e00000000000000000000000000000000000000000000000000000081525060400191505060405180910390fd5b6065831015156168f0576040517f08c379a00000000000000000000000000000000000000000000000000000000081526004018080602001828103825260318152602001807f4d6f6b656e206e616d652063616e6e6f7420626520677265617465722074686181526020017f6e2031303020636861726163746572732e00000000000000000000000000000081525060400191505060405180910390fd5b602084600081518110151561690157fe5b9060200101517f010000000000000000000000000000000000000000000000000000000000000090047f0100000000000000000000000000000000000000000000000000000000000000027f010000000000000000000000000000000000000000000000000000000000000090041180156169fa57506020846001850381518110151561698a57fe5b9060200101517f010000000000000000000000000000000000000000000000000000000000000090047f0100000000000000000000000000000000000000000000000000000000000000027f01000000000000000000000000000000000000000000000000000000000000009004115b1515616aba576040517f08c379a00000000000000000000000000000000000000000000000000000000081526004018080602001828103825260558152602001807f4d6f6b656e206e616d65732073686f756c64206e6f7420636f6e7461696e206c81526020017f656164696e67206f7220747261696c696e6720737061636573206f72206e6f6e81526020017f7072696e7461626c6520636861726163746572732e000000000000000000000081525060600191505060405180910390fd5b600091505b82821015616bcc578382815181101515616ad557fe5b9060200101517f010000000000000000000000000000000000000000000000000000000000000090047f0100000000000000000000000000000000000000000000000000000000000000027f010000000000000000000000000000000000000000000000000000000000000090049050605b81108015616b555750604081115b15616bbf57602081017f0100000000000000000000000000000000000000000000000000000000000000028483815181101515616b8e57fe5b9060200101907effffffffffffffffffffffffffffffffffffffffffffffffffffffffffffff1916908160001a9053505b8180600101925050616abf565b83945050505050919050565b600080600080600080600080600073ffffffffffffffffffffffffffffffffffffffff168d73ffffffffffffffffffffffffffffffffffffffff1614151515616c89576040517f08c379a000000000000000000000000000000000000000000000000000000000815260040180806020018281038252601e8152602001807f5f66726f6d2063616e6e6f7420626520746865203020616464726573732e000081525060200191505060405180910390fd5b600073ffffffffffffffffffffffffffffffffffffffff168c73ffffffffffffffffffffffffffffffffffffffff1614151515616d2e576040517f08c379a000000000000000000000000000000000000000000000000000000000815260040180806020018281038252601c8152602001807f5f746f2063616e6e6f7420626520746865203020616464726573732e0000000081525060200191505060405180910390fd5b600160008c81526020019081526020016000206001015497508796508c73ffffffffffffffffffffffffffffffffffffffff168773ffffffffffffffffffffffffffffffffffffffff16141515616e13576040517f08c379a00000000000000000000000000000000000000000000000000000000081526004018080602001828103825260228152602001807f54686520746f6b656e4964206973206e6f74206f776e6564206279205f66726f81526020017f6d2e00000000000000000000000000000000000000000000000000000000000081525060400191505060405180910390fd5b600073ffffffffffffffffffffffffffffffffffffffff16600560008d815260200190815260200160002060009054906101000a900473ffffffffffffffffffffffffffffffffffffffff1673ffffffffffffffffffffffffffffffffffffffff16141515616f2c576000600560008d815260200190815260200160002060006101000a81548173ffffffffffffffffffffffffffffffffffffffff021916908373ffffffffffffffffffffffffffffffffffffffff1602179055508a600073ffffffffffffffffffffffffffffffffffffffff168e73ffffffffffffffffffffffffffffffffffffffff167f8c5be1e5ebec7d5bd14f71427d1e84f3dd0314c0f7b2291e5b200ac8c7c3b92560405160405180910390a45b6001600360008f73ffffffffffffffffffffffffffffffffffffffff1673ffffffffffffffffffffffffffffffffffffffff16815260200190815260200160002080549050039550600360008e73ffffffffffffffffffffffffffffffffffffffff1673ffffffffffffffffffffffffffffffffffffffff16815260200190815260200160002086815481101515616fc057fe5b90600052602060002090600891828204019190066004029054906101000a900463ffffffff1663ffffffff1694508a851415156170e65761ffff60a0899060020a900416935084600360008f73ffffffffffffffffffffffffffffffffffffffff1673ffffffffffffffffffffffffffffffffffffffff1681526020019081526020016000208581548110151561705357fe5b90600052602060002090600891828204019190066004026101000a81548163ffffffff021916908363ffffffff1602179055506001600086815260200190815260200160002060010154925060a0849060020a027fffffffffffffffffffff0000ffffffffffffffffffffffffffffffffffffffff84161760016000878152602001908152602001600020600101819055505b600360008e73ffffffffffffffffffffffffffffffffffffffff1673ffffffffffffffffffffffffffffffffffffffff1681526020019081526020016000208054809190600190036171389190618528565b50600360008d73ffffffffffffffffffffffffffffffffffffffff1673ffffffffffffffffffffffffffffffffffffffff1681526020019081526020016000208054905091506201000082101515617244576040517f08c379a00000000000000000000000000000000000000000000000000000000081526004018080602001828103825260458152602001807f416e2073696e676c6520746f6b656e206f776e6572206164647265737320636181526020017f6e6e6f7420706f7373657373206d6f7265207468616e2036352c353336206d6f81526020017f6b656e732e00000000000000000000000000000000000000000000000000000081525060600191505060405180910390fd5b8b73ffffffffffffffffffffffffffffffffffffffff1660a0839060020a027fffffffffffffffffffff000000000000000000000000000000000000000000008a161717600160008d815260200190815260200160002060010181905550600360008d73ffffffffffffffffffffffffffffffffffffffff1673ffffffffffffffffffffffffffffffffffffffff1681526020019081526020016000208b908060018154018082558091505090600182039060005260206000209060089182820401919006600402909192909190916101000a81548163ffffffff021916908363ffffffff160217905550508a8c73ffffffffffffffffffffffffffffffffffffffff168e73ffffffffffffffffffffffffffffffffffffffff167fddf252ad1be2c89b69c2b068fc378daa952ba7f163c4a11628f55a4df523b3ef60405160405180910390a488156175ec5761739a8c618429565b156175eb578b73ffffffffffffffffffffffffffffffffffffffff1663f0b9e5ba8e8d8d6040518463ffffffff167c0100000000000000000000000000000000000000000000000000000000028152600401808473ffffffffffffffffffffffffffffffffffffffff1673ffffffffffffffffffffffffffffffffffffffff16815260200183815260200180602001828103825283818151815260200191508051906020019080838360005b83811015617461578082015181840152602081019050617446565b50505050905090810190601f16801561748e5780820380516001836020036101000a031916815260200191505b50945050505050602060405180830381600087803b1580156174af57600080fd5b505af11580156174c3573d6000803e3d6000fd5b505050506040513d60208110156174d957600080fd5b8101908080519060200190929190505050905063f0b9e5ba7c0100000000000000000000000000000000000000000000000000000000027bffffffffffffffffffffffffffffffffffffffffffffffffffffffff1916817bffffffffffffffffffffffffffffffffffffffffffffffffffffffff19161415156175ea576040517f08c379a000000000000000000000000000000000000000000000000000000000815260040180806020018281038252603a8152602001807f54686520726563656976696e6720636f6e7472616374206d757374206265206181526020017f626c6520746f2072656365697665207468697320746f6b656e2e00000000000081525060400191505060405180910390fd5b5b5b50505050505050505050505050565b600080600060010283600019161415151561767e576040517f08c379a00000000000000000000000000000000000000000000000000000000081526004018080602001828103825260188152602001807f6572614e616d6520697320656d70747920737472696e672e000000000000000081525060200191505060405180910390fd5b6000600c6000856000191660001916815260200190815260200160002054141515617711576040517f08c379a00000000000000000000000000000000000000000000000000000000081526004018080602001828103825260188152602001807f457261206e616d6520616c7265616479206578697374732e000000000000000081525060200191505060405180910390fd5b6002549050600b600081548092919060010191905055915082600a6000848152602001908152602001600020816000191690555060018201600c60008560001916600019168152602001908152602001600020819055507fdbca81c89f24217329d3998206c76a66dccc45fb18789e6b0bd64936c6d6b787828483604051808481526020018360001916600019168152602001828152602001935050505060405180910390a1818191509150915091565b600080600080600080601460008a815260200190815260200160002060008973ffffffffffffffffffffffffffffffffffffffff1673ffffffffffffffffffffffffffffffffffffffff1681526020019081526020016000206000888152602001908152602001600020549550600086141515156178a8576040517f08c379a000000000000000000000000000000000000000000000000000000000815260040180806020018281038252601f8152602001807f4368696c6420746f6b656e206e6f74206f776e656420627920746f6b656e2e0081525060200191505060405180910390fd5b6001601360008b815260200190815260200160002060008a73ffffffffffffffffffffffffffffffffffffffff1673ffffffffffffffffffffffffffffffffffffffff16815260200190815260200160002080549050039450601360008a815260200190815260200160002060008973ffffffffffffffffffffffffffffffffffffffff1673ffffffffffffffffffffffffffffffffffffffff1681526020019081526020016000208581548110151561795e57fe5b9060005260206000200154935083601360008b815260200190815260200160002060008a73ffffffffffffffffffffffffffffffffffffffff1673ffffffffffffffffffffffffffffffffffffffff168152602001908152602001600020600188038154811015156179cc57fe5b906000526020600020018190555085601460008b815260200190815260200160002060008a73ffffffffffffffffffffffffffffffffffffffff1673ffffffffffffffffffffffffffffffffffffffff168152602001908152602001600020600086815260200190815260200160002081905550601360008a815260200190815260200160002060008973ffffffffffffffffffffffffffffffffffffffff1673ffffffffffffffffffffffffffffffffffffffff168152602001908152602001600020805480919060019003617aa39190618562565b50601460008a815260200190815260200160002060008973ffffffffffffffffffffffffffffffffffffffff1673ffffffffffffffffffffffffffffffffffffffff168152602001908152602001600020600088815260200190815260200160002060009055601560008973ffffffffffffffffffffffffffffffffffffffff1673ffffffffffffffffffffffffffffffffffffffff1681526020019081526020016000206000888152602001908152602001600020600090556000851415617d5c57601260008a815260200190815260200160002060008973ffffffffffffffffffffffffffffffffffffffff1673ffffffffffffffffffffffffffffffffffffffff1681526020019081526020016000205492506001601160008b815260200190815260200160002080549050039150601160008a815260200190815260200160002082815481101515617bf557fe5b9060005260206000200160009054906101000a900473ffffffffffffffffffffffffffffffffffffffff16905080601160008b815260200190815260200160002084815481101515617c4357fe5b9060005260206000200160006101000a81548173ffffffffffffffffffffffffffffffffffffffff021916908373ffffffffffffffffffffffffffffffffffffffff16021790555082601260008b815260200190815260200160002060008373ffffffffffffffffffffffffffffffffffffffff1673ffffffffffffffffffffffffffffffffffffffff16815260200190815260200160002081905550601160008a8152602001908152602001600020805480919060019003617d06919061858e565b50601260008a815260200190815260200160002060008973ffffffffffffffffffffffffffffffffffffffff1673ffffffffffffffffffffffffffffffffffffffff168152602001908152602001600020600090555b505050505050505050565b60606000606060008060608060008060606000600a9950896040519080825280601f01601f191660200182016040528015617db15781602001602082028038833980820191505090505b5098506000975060008d1415617e2d576001975060307f010000000000000000000000000000000000000000000000000000000000000002896000815181101515617df857fe5b9060200101907effffffffffffffffffffffffffffffffffffffffffffffffffffffffffffff1916908160001a905350617ec6565b5b60008d141515617ec557600a8d811515617e4457fe5b069650600a8d811515617e5357fe5b049c50866030017f0100000000000000000000000000000000000000000000000000000000000000028989806001019a50815181101515617e9057fe5b9060200101907effffffffffffffffffffffffffffffffffffffffffffffffffffffffffffff1916908160001a905350617e2e565b5b8d95508b9450855193508451925082888501016040519080825280601f01601f191660200182016040528015617f0b5781602001602082028038833980820191505090505b509150600090505b83811015617fbf578581815181101515617f2957fe5b9060200101517f010000000000000000000000000000000000000000000000000000000000000090047f0100000000000000000000000000000000000000000000000000000000000000028282815181101515617f8257fe5b9060200101907effffffffffffffffffffffffffffffffffffffffffffffffffffffffffffff1916908160001a9053508080600101915050617f13565b600090505b8781101561807757888160018a0303815181101515617fdf57fe5b9060200101517f010000000000000000000000000000000000000000000000000000000000000090047f0100000000000000000000000000000000000000000000000000000000000000028285830181518110151561803a57fe5b9060200101907effffffffffffffffffffffffffffffffffffffffffffffffffffffffffffff1916908160001a9053508080600101915050617fc4565b600090505b8281101561812c57848181518110151561809257fe5b9060200101517f010000000000000000000000000000000000000000000000000000000000000090047f0100000000000000000000000000000000000000000000000000000000000000028289868401018151811015156180ef57fe5b9060200101907effffffffffffffffffffffffffffffffffffffffffffffffffffffffffffff1916908160001a905350808060010191505061807c565b819a50505050505050505050509392505050565b60006013600085815260200190815260200160002060008473ffffffffffffffffffffffffffffffffffffffff1673ffffffffffffffffffffffffffffffffffffffff16815260200190815260200160002080549050905060008114156182845760116000858152602001908152602001600020805490506012600086815260200190815260200160002060008573ffffffffffffffffffffffffffffffffffffffff1673ffffffffffffffffffffffffffffffffffffffff16815260200190815260200160002081905550601160008581526020019081526020016000208390806001815401808255809150509060018203906000526020600020016000909192909190916101000a81548173ffffffffffffffffffffffffffffffffffffffff021916908373ffffffffffffffffffffffffffffffffffffffff160217905550505b6013600085815260200190815260200160002060008473ffffffffffffffffffffffffffffffffffffffff1673ffffffffffffffffffffffffffffffffffffffff168152602001908152602001600020829080600181540180825580915050906001820390600052602060002001600090919290919091505550600181016014600086815260200190815260200160002060008573ffffffffffffffffffffffffffffffffffffffff1673ffffffffffffffffffffffffffffffffffffffff16815260200190815260200160002060008481526020019081526020016000208190555083601560008573ffffffffffffffffffffffffffffffffffffffff1673ffffffffffffffffffffffffffffffffffffffff1681526020019081526020016000206000848152602001908152602001600020819055508273ffffffffffffffffffffffffffffffffffffffff16848673ffffffffffffffffffffffffffffffffffffffff167f0371ddf2288ad1ba92626a7e31c86a9d006e592cfe57d7d946ef08b13457c08b856040518082815260200191505060405180910390a45050505050565b600080823b905060008111915050919050565b828054600181600116156101000203166002900490600052602060002090601f016020900481019282601f1061847d57803560ff19168380011785556184ab565b828001600101855582156184ab579182015b828111156184aa57823582559160200191906001019061848f565b5b5090506184b891906185ba565b5090565b61014060405190810160405280600a90602082028038833980820191505090505090565b50805460018160011615610100020316600290046000825580601f106185065750618525565b601f01602090049060005260206000209081019061852491906185ba565b5b50565b81548183558181111561855d57600701600890048160070160089004836000526020600020918201910161855c91906185ba565b5b505050565b8154818355818111156185895781836000526020600020918201910161858891906185ba565b5b505050565b8154818355818111156185b5578183600052602060002091820191016185b491906185ba565b5b505050565b6185dc91905b808211156185d85760008160009055506001016185c0565b5090565b905600a165627a7a72305820605239792cf2ea2f742a269664c415eabda96359f4547ee61e4cca936bafe7af0029",
  "source": "pragma solidity 0.4.24;\npragma experimental \"v0.5.0\";\n\n\n\ninterface ERC721TokenReceiver {\n\n\n    /// @notice Handle the receipt of an NFT\n    /// @dev The ERC721 smart contract calls this function on the recipient\n    ///  after a `safetransfer`. This function MAY throw to revert and reject the\n    ///  transfer. This function MUST use 50,000 gas or less. Return of other\n    ///  than the magic value MUST result in the transaction being reverted.\n    ///  Note: the contract address is always the message sender.\n    /// @param _from The sending address \n    /// @param _tokenId The NFT identifier which is being transfered\n    /// @param _data Additional data with no specified format\n    /// @return `bytes4(keccak256(\"onERC721Received(address,uint256,bytes)\"))`\n    function onERC721Received(address _from, uint256 _tokenId, bytes _data) external returns (bytes4);\n}\n\n/**\n * @title ERC721 Non-Fungible Token Standard basic interface\n * @dev see https://github.com/ethereum/eips/issues/721\n */\ninterface ERC721 {\n    event Transfer(address indexed _from, address indexed _to, uint256 indexed _tokenId);\n    event Approval(address indexed _tokenOwner, address indexed _approved, uint256 indexed _tokenId);\n    event ApprovalForAll(address indexed _tokenOwner, address indexed _operator, bool _approved);\n\n    function balanceOf(address _tokenOwner) external view returns (uint256 _balance);\n    function ownerOf(uint256 _tokenId) external view returns (address _tokenOwner);\n    function safeTransferFrom(address _from, address _to, uint256 _tokenId, bytes _data) external;\n    function safeTransferFrom(address _from, address _to, uint256 _tokenId) external;\n    function transferFrom(address _from, address _to, uint256 _tokenId) external;\n    function approve(address _to, uint256 _tokenId) external;\n    function setApprovalForAll(address _operator, bool _approved) external;\n    function getApproved(uint256 _tokenId) external view returns (address _operator);\n    function isApprovedForAll(address _tokenOwner, address _operator) external view returns (bool);\n}\n\n/// @title ERC-721 Non-Fungible Token Standard, optional enumeration extension\n/// @dev See https://github.com/ethereum/EIPs/blob/master/EIPS/eip-721.md\ninterface ERC721Enumerable {\n    function totalSupply() external view returns (uint256);\n    function tokenOfOwnerByIndex(address _tokenOwner, uint256 _index) external view returns (uint256 _tokenId);\n    function tokenByIndex(uint256 _index) external view returns (uint256);\n}\n\n/// @title ERC-721 Non-Fungible Token Standard, optional metadata extension\n/// @dev See https://github.com/ethereum/EIPs/blob/master/EIPS/eip-721.md\ninterface ERC721Metadata {\n    function name() external pure returns (string _name);\n    function symbol() external pure returns (string _symbol);\n    function tokenURI(uint256 _tokenId) external view returns (string);\n}\n\ninterface ERC165 {\n    /// @notice Query if a contract implements an interface\n    /// @param _interfaceID The interface identifier, as specified in ERC-165\n    /// @dev Interface identification is specified in ERC-165. This function\n    ///  uses less than 30,000 gas.\n    /// @return `true` if the contract implements `_interfaceID` and\n    ///  `_interfaceID` is not 0xffffffff, `false` otherwise\n    function supportsInterface(bytes4 _interfaceID) external view returns (bool);\n}\n\n\ninterface ERC998NFT {\n    event ReceivedChild(address indexed _from, uint256 indexed _tokenId, address indexed _childContract, uint256 _childTokenId);\n    event TransferChild(address indexed _to, bytes _data, uint256 indexed _childTokenId);    \n    \n    function childOwnerOf(address _childContract, uint256 _childTokenId) external view returns (uint256 tokenId);\n    function onERC721Received(address _from, uint256 _childTokenId, bytes _data) external returns(bytes4);\n    function transferChild(address _to, uint256 _tokenId, address _childContract, uint256 _childTokenId) external;\n    function transferChild(address _to, uint256 _tokenId, address _childContract, uint256 _childTokenId, bytes data) external;\n    \n}\n\ninterface ERC998NFTEnumerable {\n    function totalChildContracts(uint256 _tokenId) external view returns(uint256);\n    function childContractByIndex(uint256 _tokenId, uint256 _index) external view returns (address childContract);\n    function totalChildTokens(uint256 _tokenId, address _childContract) external view returns(uint256);\n    function childTokenByIndex(uint256 _tokenId, address _childContract, uint256 _index) external view returns (uint256 childTokenId);\n}\n\ncontract Mokens is ERC721, ERC721Enumerable, ERC721Metadata, ERC165, ERC998NFT, ERC998NFTEnumerable {\n    uint256 public blockNum;\n    \n    \n    /// @dev Magic value to be returned upon successful reception of an NFT\n    ///  Equals to bytes4(keccak256(\"onERC721Received(address,uint256,bytes)\"))\n    bytes4 constant ERC721_RECEIVED = 0xf0b9e5ba;\n    \n    constructor() public {\n\n        blockNum = block.number;\n        owner = msg.sender;\n        startNextEra_(\"Genesis\");\n\n    }\n    /******************************************************************************/\n    /******************************************************************************/\n    /******************************************************************************/\n    /* ERC165Impl ***********************************************************/\n    function supportsInterface(bytes4 _interfaceID) external view returns (bool) {\n        return _interfaceID == 0x01ffc9a7  //ERC165\n            || _interfaceID == 0x80ac58cd  //ERC721\n            || _interfaceID == 0x5b5e139f  //ERC721Metadata\n            || _interfaceID == 0x780e9d63; //ERC721Enumerable\n    }\n    /******************************************************************************/\n    /******************************************************************************/\n    /******************************************************************************/\n    /* Token Data ***********************************************************/\n    struct Moken {\n        string name;\n        uint256 data;\n    }\n    //tokenId to moken\n    mapping (uint256 => Moken) private mokens;\n    uint256 private mokensLength = 0;\n\n    // Mapping from owner to list of owned token IDs\n    mapping (address => uint32[]) private ownedTokens;\n\n    uint256 constant UINT16_MASK =          0x000000000000000000000000000000000000000000000000000000000000ffff;\n    uint256 constant MOKEN_LINK_HASH_MASK = 0xffffffffffffffff000000000000000000000000000000000000000000000000;\n    uint256 constant MOKEN_DATA_MASK =      0x0000000000000000ffffffffffffffffffffffffffffffffffffffffffffffff;\n    uint256 constant MAX_MOKENS = 4294967296;\n    uint256 constant MAX_OWNER_MOKENS = 65536;\n\n    /******************************************************************************/\n    /******************************************************************************/\n    /******************************************************************************/\n    /* Contract Management ***********************************************************/\n    address public owner;\n    \n    // Mapping from token ID to approved address\n    mapping (uint256 => address) private tokenApprovals;\n\n    // Mapping from owner to operator approvals\n    mapping (address => mapping (address => bool)) private operatorApprovals;\n\n    function getBalance() external view returns(uint256) {\n        return address(this).balance;\n    }\n\n    modifier onlyOwner() {\n        require(msg.sender == owner, \"Must be the owner.\");\n        _;\n    }\n\n    modifier onlyApproved(uint256 _tokenId) {\n        address tokenOwner = address(mokens[_tokenId].data);\n        require(tokenOwner != address(0), \"The tokenId does not exist.\");\n        require(msg.sender == tokenOwner || tokenApprovals[_tokenId] == msg.sender || operatorApprovals[tokenOwner][msg.sender],\n            \"Must be the token owner or approved to take this action.\");\n        _;\n    }\n\n    function withdraw(address _sendTo, uint256 _amount) external onlyOwner {\n        address mokensContract = this;\n        if (_amount > mokensContract.balance) {\n            _sendTo.transfer(mokensContract.balance);\n        } else {\n            _sendTo.transfer(_amount);\n        }\n\n    }\n    \n    function transferOwnership(address _newOwner) public onlyOwner {\n        require(_newOwner != address(0));\n        owner = _newOwner;\n    }\n    \n    \n\n    /******************************************************************************/\n    /******************************************************************************/\n    /******************************************************************************/\n    /* ERC721Impl ***********************************************************/\n\n    function balanceOf(address _tokenOwner) external view returns (uint256 totalMokensOwned) {\n        require(_tokenOwner != address(0), \"Owner cannot be the 0 address.\");\n        return ownedTokens[_tokenOwner].length;\n    }\n    \n    function getTopTenTokenArray(address _tokenOwner) external view returns (uint256[10]) {\n        require(_tokenOwner != address(0), \"Owner cannot be the 0 address.\");\n        uint256[10] memory mokensOwned; \n        uint256 iterations = 10;\n        if (ownedTokens[_tokenOwner].length < 10) iterations = 10 - ownedTokens[_tokenOwner].length;\n        for (uint i=0; i<iterations; i++) {\n            mokensOwned[i] = ownedTokens[_tokenOwner][i];\n        }\n        return mokensOwned;\n    }\n\n    function ownerOf(uint256 _tokenId) external view returns (address tokenOwner) {\n        tokenOwner = address(mokens[_tokenId].data);\n        require(tokenOwner != address(0), \"The tokenId does not exist.\");\n        return tokenOwner;\n    }\n\n    function approve(address _to, uint256 _tokenId) external {\n        address tokenOwner = address(mokens[_tokenId].data);\n        require(tokenOwner != address(0), \"The tokenId does not exist.\");\n        require(msg.sender == tokenOwner || operatorApprovals[tokenOwner][msg.sender], \"Must be the token owner or approved operator.\");\n\n        if (tokenApprovals[_tokenId] != address(0) || _to != address(0)) {\n            tokenApprovals[_tokenId] = _to;\n            emit Approval(tokenOwner, _to, _tokenId);\n        }\n    }\n\n    function getApproved(uint256 _tokenId) external view returns (address approvedAddress) {\n        address tokenOwner = address(mokens[_tokenId].data);\n        require(tokenOwner != address(0), \"The tokenId does not exist.\");\n        return tokenApprovals[_tokenId];\n    }\n\n\n    function setApprovalForAll(address _to, bool _approved) external {\n        require(_to != address(0), \"Cannot set a 0 address.\");\n        operatorApprovals[msg.sender][_to] = _approved;\n        emit ApprovalForAll(msg.sender, _to, _approved);\n    }\n\n    function isApprovedForAll(address _tokenOwner, address _operator) external view returns (bool approved) {\n        return operatorApprovals[_tokenOwner][_operator];\n    }\n\n    function transferFrom(address _from, address _to, uint256 _tokenId) external onlyApproved(_tokenId) {\n        clearApprovalAndTransfer(_from, _to, _tokenId, \"\", false);\n    }\n\n    function safeTransferFrom(address _from, address _to, uint256 _tokenId) external onlyApproved(_tokenId) {\n        clearApprovalAndTransfer(_from, _to, _tokenId, \"\", true);\n    }\n\n    function safeTransferFrom(address _from, address _to, uint256 _tokenId, bytes _data) external onlyApproved(_tokenId) {\n        clearApprovalAndTransfer(_from, _to, _tokenId, _data, true);\n    }\n\n    function isContract(address addr) private view returns (bool) {\n        uint256 size;\n        assembly { size := extcodesize(addr) }\n        return size > 0;\n    }\n\n    function clearApprovalAndTransfer(address _from, address _to, uint256 _tokenId, bytes _data, bool _safe) private {\n        require(_from != address(0), \"_from cannot be the 0 address.\");\n        require(_to != address(0), \"_to cannot be the 0 address.\");\n        uint256 data = mokens[_tokenId].data;\n        address tokenOwner = address(data);\n        require(tokenOwner == _from, \"The tokenId is not owned by _from.\");\n\n        //Clear approval\n        if (tokenApprovals[_tokenId] != address(0)) {\n            tokenApprovals[_tokenId] = address(0);\n            emit Approval(_from, address(0), _tokenId);\n        }\n\n        //removing the tokenId\n        // 1. We replace _tokenId in ownedTokens[_from] with the last token id\n        //    in ownedTokens[_from]\n        uint256 lastTokenIndex = ownedTokens[_from].length - 1;\n        uint256 lastTokenId = ownedTokens[_from][lastTokenIndex];\n        if(lastTokenId != _tokenId) {\n            uint256 tokenIndex = data >> 160 & UINT16_MASK;\n            ownedTokens[_from][tokenIndex] = uint32(lastTokenId);\n            // 2. We set lastTokeId to point to its new position in ownedTokens[_from]\n            uint256 lastTokenIdData = mokens[lastTokenId].data;\n            mokens[lastTokenId].data = lastTokenIdData & 0xffffffffffffffffffff0000ffffffffffffffffffffffffffffffffffffffff | tokenIndex << 160;\n        }\n        // 3. We remove lastTokenId from the end of ownedTokens[_from]\n        ownedTokens[_from].length--;\n        \n        //adding the tokenId\n        uint256 ownedTokensIndex = ownedTokens[_to].length;\n        // prevents 16 bit overflow\n        require(ownedTokensIndex < MAX_OWNER_MOKENS, \"An single token owner address cannot possess more than 65,536 mokens.\");\n        mokens[_tokenId].data = data & 0xffffffffffffffffffff00000000000000000000000000000000000000000000 | ownedTokensIndex << 160 | uint256(_to);\n        ownedTokens[_to].push(uint32(_tokenId));\n\n        emit Transfer(_from, _to, _tokenId);\n\n        if (_safe) {\n            if(isContract(_to)) {\n                bytes4 val = ERC721TokenReceiver(_to).onERC721Received(_from, _tokenId, _data);\n                require(val == ERC721_RECEIVED, \"The receiving contract must be able to receive this token.\");\n            }\n        }\n    }\n\n\n    /******************************************************************************/\n    /******************************************************************************/\n    /******************************************************************************/\n    /* ERC721EnumerableImpl **************************************************/\n\n    function exists(uint256 _tokenId) external view returns (bool) {\n        return _tokenId < mokensLength;\n    }\n\n    function tokenOfOwnerByIndex(address _tokenOwner, uint256 _index) external view returns (uint256 tokenId) {\n        require(_index < ownedTokens[_tokenOwner].length, \"Owner does not own a moken at this index.\");\n        return ownedTokens[_tokenOwner][_index];\n    }\n\n    function totalSupply() external view returns (uint256 totalMokens) {\n        return mokensLength;\n    }\n\n    function tokenByIndex(uint256 _index) external view returns (uint256 tokenId) {\n        require(_index < mokensLength, \"TokenId at this index does not exist.\");\n        return _index;\n    }\n    /******************************************************************************/\n    /******************************************************************************/\n    /******************************************************************************/\n    /* ERC721MetadataImpl **************************************************/\n    string constant name_ = \"Mokens\";\n    string constant symbol_ = \"MKN\";\n\n    function name() external pure returns (string) {\n        return name_;\n    }\n\n    function symbol() external pure returns (string) {\n        return symbol_;\n    }\n\n    mapping (uint256 => string) private tokenURI_;\n\n    string private defaultURIStart = \"https://api.mokens.io/moken/\";\n    string private defaultURIEnd = \".json\";\n\n    function setDefaultURIStart(string _defaultURIStart) external onlyOwner {\n        defaultURIStart = _defaultURIStart;\n    }\n\n    function setDefaultURIEnd(string _defaultURIEnd) external onlyOwner {\n        defaultURIEnd = _defaultURIEnd;\n    }\n\n    function setTokenURI(uint256 _tokenId, string _uri) external onlyApproved(_tokenId) {\n        tokenURI_[_tokenId] = _uri;\n    }\n\n    function deleteCustomTokenURI(uint256 _tokenId) external onlyApproved(_tokenId) {\n        delete tokenURI_[_tokenId];\n    }\n\n    function hasCustomURI(uint256 _tokenId) external view returns (bool) {\n        require(_tokenId < mokensLength, \"The tokenId does not exist.\");\n        return bytes(tokenURI_[_tokenId]).length > 0;\n    }\n\n    function tokenURI(uint256 _tokenId) external view returns (string tokenURIString) {\n        require(_tokenId < mokensLength, \"The tokenId does not exist.\");\n        if(bytes(tokenURI_[_tokenId]).length == 0) {\n            return makeIntString(defaultURIStart,_tokenId,defaultURIEnd);\n        }\n        else {\n            return tokenURI_[_tokenId];\n        }\n    }\n\n    // creates a string made from an integer between two strings\n    function makeIntString(string startString, uint256 v, string endString) private pure returns (string) {\n        uint256 maxlength = 10;\n        bytes memory reversed = new bytes(maxlength);\n        uint256 numDigits = 0;\n        if(v == 0) {\n            numDigits = 1;\n            reversed[0] = byte(48);\n        }\n        else {\n            while (v != 0) {\n                uint256 remainder = v % 10;\n                v = v / 10;\n                reversed[numDigits++] = byte(48 + remainder);\n            }\n        }\n        bytes memory startStringBytes = bytes(startString);\n        bytes memory endStringBytes = bytes(endString);\n        uint256 startStringLength = startStringBytes.length;\n        uint256 endStringLength = endStringBytes.length;\n        bytes memory newStringBytes = new bytes(startStringLength + numDigits + endStringLength);\n        uint256 i;\n        for (i = 0; i < startStringLength; i++) {\n            newStringBytes[i] = startStringBytes[i];\n        }\n        for (i = 0; i < numDigits; i++) {\n            newStringBytes[i + startStringLength] = reversed[numDigits - 1 - i];\n        }\n        for (i = 0; i < endStringLength; i++) {\n            newStringBytes[i + startStringLength + numDigits] = endStringBytes[i];\n        }\n        return string(newStringBytes);\n    }\n\n    /******************************************************************************/\n    /******************************************************************************/\n    /******************************************************************************/\n    /* Eras  **************************************************/\n\n    event NewEra(\n        uint256 index,\n        bytes32 name,\n        uint256 startTokenId\n    );\n\n    // index to era\n    mapping (uint256 => bytes32) private eras;\n    uint256 private eraLength = 0;\n\n    // era to index+1\n    mapping (bytes32 => uint256) private eraIndex;\n\n    function startNextEra_(bytes32 _eraName) private returns (uint256 index, uint256 startTokenId) {\n        require(_eraName != 0, \"eraName is empty string.\");\n        require(eraIndex[_eraName] == 0, \"Era name already exists.\");\n        startTokenId = mokensLength;\n        index = eraLength++;\n        eras[index] = _eraName;\n        eraIndex[_eraName] = index+1;\n        emit NewEra(index, _eraName, startTokenId);\n        return (index, startTokenId);\n    }\n\n    // It is predicted that often a new era comes with a mint price change\n    function startNextEra(bytes32 _eraName,  uint256 _mintStepPrice, uint256 _mintPriceOffset, uint256 _mintPriceBuffer) external onlyOwner\n    returns (uint256 index, uint256 startTokenId, uint256 mintPrice) {\n        require(_mintStepPrice < 10000 ether, \"mintStepPrice must be less than 10,000 ether.\");\n        mintPriceOffset = _mintPriceOffset;\n        mintStepPrice = _mintStepPrice;\n        mintPriceBuffer = _mintPriceBuffer;\n        uint256 totalStepPrice = mokensLength * _mintStepPrice;\n        require(totalStepPrice >= _mintPriceOffset, \"(mokensLength * mintStepPrice) must be greater than or equal to mintPriceOffset.\");\n        mintPrice = totalStepPrice - _mintPriceOffset;\n        emit MintPriceConfigurationChange(mintPrice, _mintStepPrice, _mintPriceOffset, _mintPriceBuffer);\n        emit MintPriceChange(mintPrice);\n        (index, startTokenId) = startNextEra_(_eraName);\n        return (index, startTokenId, mintPrice);\n    }\n\n    function startNextEra(bytes32 _eraName) external onlyOwner returns (uint256 index, uint256 startTokenId) {\n        return startNextEra_(_eraName);\n    }\n\n    \n    function eraByIndex(uint256 _index) external view returns(bytes32 era) {\n        require(_index < eraLength, \"No era at this index.\");\n        return eras[_index];\n    }\n\n    \n    function eraByName(bytes32 _eraName) external view returns(uint256 indexOfEra) {\n        uint256 index = eraIndex[_eraName];\n        require(index != 0, \"No era exists with this name.\");\n        return index-1;\n    }\n\n    function currentEra() external view returns(bytes32 era) {\n        return eras[eraLength-1];\n    }\n\n    function currentEraIndex() external view returns(uint256 indexOfEra) {\n        return eraLength-1;\n    }\n\n    function eraExists(bytes32 _eraName) external view returns(bool) {\n        return eraIndex[_eraName] != 0;\n    }\n\n    function totalEras() external view returns (uint256 totalEras_) {\n        return eraLength;\n    }\n\n    /******************************************************************************/\n    /******************************************************************************/\n    /******************************************************************************/\n    /* Minting  **************************************************/\n    event Mint(\n        address indexed mintContract,\n        address indexed owner,\n        bytes32 indexed era,\n        string mokenName,\n        bytes32 data,\n        uint256 tokenId,\n        bytes32 currencyName,\n        uint256 price\n    );\n\n    \n    event MintPriceChange(\n        uint256 mintPrice\n    );\n\n    event MintPriceConfigurationChange(\n        uint256 mintPrice,\n        uint256 mintStepPrice,\n        uint256 mintPriceOffset,\n        uint256 mintPriceBuffer\n    );\n\n    uint256 public mintPriceOffset = 0 szabo;\n    uint256 public mintStepPrice = 500 szabo;\n    uint256 public mintPriceBuffer = 5000 szabo;\n    \n    function mintData() external view returns(uint256 mokensLength_, uint256 mintStepPrice_, uint256 mintPriceOffset_) {\n        return (mokensLength, mintStepPrice, mintPriceOffset);\n    }\n\n    function setMintPrice(uint256 _mintStepPrice, uint256 _mintPriceOffset, uint256 _mintPriceBuffer) external onlyOwner returns(uint256 mintPrice) {\n        require(_mintStepPrice < 10000 ether, \"mintStepPrice must be less than 10,000 ether.\");\n        mintPriceOffset = _mintPriceOffset;\n        mintStepPrice = _mintStepPrice;\n        mintPriceBuffer = _mintPriceBuffer;\n        uint256 totalStepPrice = mokensLength * _mintStepPrice;\n        require(totalStepPrice >= _mintPriceOffset, \"(mokensLength * mintStepPrice) must be greater than or equal to mintPriceOffset.\");\n        mintPrice = totalStepPrice - _mintPriceOffset;\n        emit MintPriceConfigurationChange(mintPrice, _mintStepPrice, _mintPriceOffset, _mintPriceBuffer);\n        emit MintPriceChange(mintPrice);\n        return mintPrice;\n    }\n    \n    function mintPrice() external view returns(uint256) {\n        return (mokensLength * mintStepPrice) - mintPriceOffset;\n    }\n\n    //moken name to tokenId+1\n    mapping (string => uint256) private tokenByName_;\n\n    function mint(address _tokenOwner, string _mokenName, bytes32 _linkHash) external payable returns (uint256 tokenId) {\n\n        require(_tokenOwner != address(0), \"Owner cannot be the 0 address.\");\n\n        tokenId = mokensLength++;\n        // prevents 32 bit overflow\n        require(tokenId < MAX_MOKENS, \"Only 4,294,967,296 mokens can be created.\");\n        uint256 mintStepPrice_ = mintStepPrice;\n        uint256 mintPriceBuffer_ = mintPriceBuffer;\n\n        //Was enough ether passed in?\n        uint256 currentMintPrice = (tokenId * mintStepPrice_) - mintPriceOffset;\n        uint256 pricePaid = currentMintPrice;\n        if(msg.value < currentMintPrice) {\n            require(mintPriceBuffer_ > currentMintPrice || msg.value >= currentMintPrice - mintPriceBuffer_, \"Paid ether is lower than mint price.\");\n            pricePaid = msg.value;\n        }\n\n        string memory lowerMokenName = validateAndLower(_mokenName);\n        require(tokenByName_[lowerMokenName] == 0, \"Moken name already exists.\");\n\n        uint256 eraIndex_ = eraLength-1;\n        uint256 ownedTokensIndex = ownedTokens[_tokenOwner].length;\n        // prevents 16 bit overflow\n        require(ownedTokensIndex < MAX_OWNER_MOKENS, \"An single owner address cannot possess more than 65,536 mokens.\");\n\n        // adding the current era index, ownedTokenIndex and owner address to data\n        // this saves gas for each mint.\n        uint256 data = uint256(_linkHash) & MOKEN_LINK_HASH_MASK | eraIndex_ << 176 | ownedTokensIndex << 160 | uint160(_tokenOwner);\n        \n        // create moken\n        mokens[tokenId].name = _mokenName;\n        mokens[tokenId].data = data;\n        tokenByName_[lowerMokenName] = tokenId+1;\n\n        //add moken to the specific owner\n        ownedTokens[_tokenOwner].push(uint32(tokenId));\n\n        //emit events\n        emit Transfer(address(0), _tokenOwner, tokenId);\n        emit Mint(this, _tokenOwner, eras[eraIndex_], _mokenName, bytes32(data), tokenId, \"Ether\", pricePaid);\n        emit MintPriceChange(currentMintPrice + mintStepPrice_);\n\n        //send minter the change if any\n        if(msg.value > currentMintPrice) {\n            msg.sender.transfer(msg.value - currentMintPrice);\n        }\n        \n        return tokenId;\n    }\n    /*\n    address[] private mintContracts;\n    mapping (address => uint256) private mintContractIndex;\n   \n    // add contract to list of contracts that can mint mokens \n    function addMintContract(address _contract) external onlyManager {\n        require(isContract(_contract), \"Address is not a contract.\");\n        require(mintContractIndex[_contract] == 0, \"Contract already added.\");\n        mintContracts.push(_contract);\n        mintContractIndex[_contract] = mintContracts.length;\n    }\n   \n    function removeMintContract(address _contract) external onlyManager {\n        uint256 index = mintContractIndex[_contract];\n        require(index != 0, \"Mint contract was not added.\");\n        uint256 lastIndex = mintContracts.length-1;\n        address lastMintContract = mintContracts[lastIndex];\n        mintContracts[index-1] = lastMintContract;\n        mintContractIndex[lastMintContract] = index;\n        delete mintContractIndex[_contract];\n        mintContracts.length--;\n    }\n    \n    function isMintContract(address _contract) public view returns (bool) {\n        return mintContractIndex[_contract] != 0;\n    }\n    \n    function totalMintContracts() external view returns (uint256 totalMintContracts_) {\n        return mintContracts.length;\n    }\n    \n    function mintContractByIndex(uint256 index) external view returns (address contract_) {\n        require(index < mintContracts.length, \"Contract index does not exist.\");\n        return mintContracts[index];\n    }\n\n    // enables third-party contracts to mint mokens.\n    // enables the ability to accept other currency/tokens for payment.\n    function contractMint(address _tokenOwner, string _mokenName, bytes32 _linkHash, bytes32 _currencyName, uint256 _pricePaid) external returns (uint256 tokenId) {\n\n        require(_tokenOwner != address(0), \"Token owner cannot be the 0 address.\");\n        require(isMintContract(msg.sender),\"Not an approved mint contract.\");\n\n        tokenId = mokensLength++;\n        uint256 mokensLength_ = tokenId+1;\n        // prevents 32 bit overflow\n        require(tokenId < MAX_MOKENS, \"Only 4,294,967,296 mokens can be created.\");\n        \n        string memory lowerMokenName = validateAndLower(_mokenName);\n        require(tokenByName_[lowerMokenName] == 0, \"Moken name already exists.\");\n\n        uint256 eraIndex_ = eraLength-1;\n        uint256 ownedTokensIndex = ownedTokens[_tokenOwner].length;\n        // prevents 16 bit overflow\n        require(ownedTokensIndex < MAX_OWNER_MOKENS, \"An single token owner address cannot possess more than 65,536 mokens.\");\n\n        // adding the current era index, ownedTokenIndex and owner address to data\n        // this saves gas for each mint.\n        uint256 data = uint256(_linkHash) & MOKEN_LINK_HASH_MASK | eraIndex_ << 176 | ownedTokensIndex << 160 | uint160(_tokenOwner);\n\n        // create moken\n        mokens[tokenId].name = _mokenName;\n        mokens[tokenId].data = data;\n        tokenByName_[lowerMokenName] = mokensLength_;\n\n        //add moken to the specific owner\n        ownedTokens[_tokenOwner].push(uint32(tokenId));\n\n        emit Transfer(address(0), _tokenOwner, tokenId);\n        emit Mint(msg.sender, _tokenOwner, eras[eraIndex_], _mokenName, bytes32(data), tokenId, _currencyName, _pricePaid);\n        emit MintPriceChange((mokensLength_ * mintStepPrice) - mintPriceOffset);\n        \n        return tokenId;\n    }\n*/\n\n    function validateAndLower(string _s) private pure returns(string mokenName) {\n        bytes memory _sBytes = bytes(_s);\n        uint256 length = _sBytes.length;\n        require(length != 0, \"Moken name cannot be an empty string.\");\n        require(length < 101, \"Moken name cannot be greater than 100 characters.\");\n        //make sure the string does not start or end with whitepace.\n        require(uint256(_sBytes[0]) > 0x20 && uint256(_sBytes[length-1]) > 0x20, \"Moken names should not contain leading or trailing spaces or nonprintable characters.\");\n        //lowercase the string\n        for (uint256 i = 0; i < length; i++) {\n            uint256 b = uint256(_sBytes[i]);\n            if(b < 0x5b && b > 0x40) {\n                _sBytes[i] = byte(b+32);\n            }\n        }\n        return string(_sBytes);\n    }\n\n    /******************************************************************************/\n    /******************************************************************************/\n    /******************************************************************************/\n    /* Mokens  **************************************************/\n\n    function mokenNameExists(string _mokenName) external view returns(bool) {\n        return tokenByName_[validateAndLower(_mokenName)] != 0;\n    }\n\n    function mokenId(string _mokenName) external view returns (uint256 tokenId) {\n        tokenId = tokenByName_[validateAndLower(_mokenName)];\n        require(tokenId != 0, \"No moken exists with this name.\");\n        return tokenId-1;\n    }\n\n    function mokenData(uint256 _tokenId) external view returns (bytes32 data) {\n        data = bytes32(mokens[_tokenId].data);\n        require(data != 0, \"The tokenId does not exist.\");\n        return data;\n    }\n\n    function eraFromMokenData(bytes32 _data) public view returns(bytes32 era) {\n        return eras[uint256(_data) >> 176 & UINT16_MASK];\n    }\n\n    function eraFromMokenData(uint256 _data) public view returns(bytes32 era) {\n        return eras[_data >> 176 & UINT16_MASK];\n    }\n\n    function mokenEra(uint256 _tokenId) external view returns(bytes32 era) {\n        uint256 data = mokens[_tokenId].data;\n        require(data != 0, \"The tokenId does not exist.\");\n        return eraFromMokenData(data);\n    }\n\n    function moken(uint256 _tokenId) external view \n    returns (string memory mokenName, bytes32 era, bytes32 data, address tokenOwner) {\n        data = bytes32(mokens[_tokenId].data);\n        require(data != 0, \"The tokenId does not exist.\");\n        return (\n            mokens[_tokenId].name, \n            eraFromMokenData(data),\n            data, \n            address(data)\n        );\n    }\n    \n    function mokenBytes32(uint256 _tokenId) external view \n    returns (bytes32 mokenNameBytes32, bytes32 era, bytes32 data, address tokenOwner) {\n        data = bytes32(mokens[_tokenId].data);\n        require(data != 0, \"The tokenId does not exist.\");\n        bytes memory mokenNameBytes = bytes(mokens[_tokenId].name);\n        require(mokenNameBytes.length != 0, \"The tokenId does not exist.\");\n        assembly {\n            mokenNameBytes32 := mload(add(mokenNameBytes, 32))\n        }\n        return (\n            mokenNameBytes32, \n            eraFromMokenData(data),\n            data, \n            address(data)\n        );\n    }\n    \n    \n    function mokenNoName(uint256 _tokenId) external view \n    returns (bytes32 era, bytes32 data, address tokenOwner) {\n        data = bytes32(mokens[_tokenId].data);\n        require(data != 0, \"The tokenId does not exist.\");\n        return (\n            eraFromMokenData(data),\n            data, \n            address(data)\n        );\n    }\n\n    function mokenName(uint256 _tokenId) external view returns (string memory mokenName_) {\n        mokenName_ = mokens[_tokenId].name;\n        require(bytes(mokenName_).length != 0, \"The tokenId does not exist.\");\n        return mokenName_;\n    }\n    \n    function mokenNameBytes32(uint256 _tokenId) external view returns (bytes32 mokenNameBytes32_) {\n        bytes memory mokenNameBytes = bytes(mokens[_tokenId].name);\n        require(mokenNameBytes.length != 0, \"The tokenId does not exist.\");\n        assembly {\n            mokenNameBytes32_ := mload(add(mokenNameBytes, 32))\n        }\n        return mokenNameBytes32_;\n    }\n    \n    /******************************************************************************/\n    /******************************************************************************/\n    /******************************************************************************/\n    /* ERC998 Implementation  **************************************************/\n    \n    // tokenId => child contract\n    mapping(uint256 => address[]) private childContracts;\n    \n    // tokenId => (child address => contract index+1)\n    mapping(uint256 => mapping(address => uint256)) private childContractIndex;\n  \n    // tokenId => (child address => array of child tokens)\n    mapping(uint256 => mapping(address => uint256[])) private childTokens;\n  \n    // tokenId => (child address => (child token => child index+1)\n    mapping(uint256 => mapping(address => mapping(uint256 => uint256))) private childTokenIndex;\n    \n    // child address => childId => tokenId\n    mapping(address => mapping(uint256 => uint256)) private childTokenOwner;\n    \n    function test(uint256 _tokenId, address _childContract, uint256 _childTokenId) view external returns (uint256) {\n        return childTokenIndex[_tokenId][_childContract][_childTokenId];\n    }\n    \n    function removeChild(uint256 _tokenId, address _childContract, uint256 _childTokenId) private {\n        uint256 tokenIndex = childTokenIndex[_tokenId][_childContract][_childTokenId];\n        require(tokenIndex != 0, \"Child token not owned by token.\");\n        \n        // remove child token\n        uint256 lastTokenIndex = childTokens[_tokenId][_childContract].length-1;\n        uint256 lastToken = childTokens[_tokenId][_childContract][lastTokenIndex];\n        childTokens[_tokenId][_childContract][tokenIndex-1] = lastToken;\n        childTokenIndex[_tokenId][_childContract][lastToken] = tokenIndex;\n        childTokens[_tokenId][_childContract].length--;\n        delete childTokenIndex[_tokenId][_childContract][_childTokenId];\n        delete childTokenOwner[_childContract][_childTokenId];\n        \n        // remove contract\n        if(lastTokenIndex == 0) {\n            uint256 contractIndex = childContractIndex[_tokenId][_childContract];\n            uint256 lastContractIndex = childContracts[_tokenId].length - 1;\n            address lastContract = childContracts[_tokenId][lastContractIndex];\n            childContracts[_tokenId][contractIndex] = lastContract;\n            childContractIndex[_tokenId][lastContract] = contractIndex;\n            childContracts[_tokenId].length--;\n            delete childContractIndex[_tokenId][_childContract];\n        }\n\n    }\n    \n    function transferChild(address _to, uint256 _tokenId, address _childContract, uint256 _childTokenId, bytes _data) onlyApproved(_tokenId) external {\n        removeChild(_tokenId, _childContract, _childTokenId);\n        ERC721(_childContract).safeTransferFrom(this, _to, _childTokenId, _data);\n        /*\n        //require that the child was transfered safely to it's destination\n        require(\n          _childContract.call(\n            bytes4(keccak256(\"safeTransferFrom(address,address,uint256,bytes)\")), this, _to, _childTokenId, _data\n          ), \"safeTransferFrom call failed.\"\n        );\n        */\n        emit TransferChild(_to, _data, _childTokenId);\n    }\n    \n    function onERC721Received(address _from, uint256 _childTokenId, bytes _data) external returns(bytes4) {\n        require(_data.length > 0, \"_data must contain the uint256 tokenId to transfer the child token to.\");\n        // convert up to 32 bytes of_data to uint256, owner nft tokenId passed as uint in bytes\n        uint256 _tokenId;\n        assembly { \n            _tokenId := calldataload(132)\n        }\n        if(_data.length < 32) {\n            _tokenId = _tokenId >> 256 - _data.length * 8;\n        }\n        \n        receiveChild(_from, _tokenId, msg.sender, _childTokenId);\n        \n        return ERC721_RECEIVED;\n    }\n    \n    function transferChild(address _to, uint256 _tokenId, address _childContract, uint256 _childTokenId) external onlyApproved(_tokenId) {\n        removeChild(_tokenId, _childContract, _childTokenId);\n        //require that the child was transfered safely to it's destination\n        require(\n          _childContract.call(\n            bytes4(keccak256(\"safeTransferFrom(address,address,uint256)\")), this, _to, _childTokenId\n          )\n        );\n        emit TransferChild(_to, new bytes(0), _childTokenId);\n    }\n  \n    \n    function receiveChild(address _from, uint256 _tokenId, address _childContract, uint256 _childTokenId) private {\n        uint256 childTokensLength = childTokens[_tokenId][_childContract].length;\n        if(childTokensLength == 0) {\n            childContractIndex[_tokenId][_childContract] = childContracts[_tokenId].length;\n            childContracts[_tokenId].push(_childContract);\n        }\n        childTokens[_tokenId][_childContract].push(_childTokenId);\n        childTokenIndex[_tokenId][_childContract][_childTokenId] = childTokensLength+1;\n        childTokenOwner[_childContract][_childTokenId] = _tokenId;\n        \n        emit ReceivedChild(_from, _tokenId, _childContract, _childTokenId);\n    }\n\n    /*\n    \n   \n    \n\n    \n    function safeTransferChild(address _to, uint256 _tokenId, address _childContract, uint256 _childTokenId, bytes _data) onlyApproved(_tokenId) external {\n        removeChild(_tokenId, _childContract, _childTokenId);\n        //require that the child was transfered safely to it's destination\n        require(\n          _childContract.call(\n            bytes4(keccak256(\"safeTransferFrom(address,address,uint256,bytes)\")), this, _to, _childTokenId, _data\n          )\n        );\n        emit TransferChild(_to, _data, _childTokenId);\n    }\n    \n    function transferChild(address _to, uint256 _tokenId, address _childContract, uint256 _childTokenId) external onlyApproved(_tokenId) {\n        removeChild(_tokenId, _childContract, _childTokenId);\n        //require that the child was transfered safely to it's destination\n        require(\n          _childContract.call(\n            bytes4(keccak256(\"transferFrom(address,address,uint256)\")), this, _to, _childTokenId\n          )\n        );\n        emit TransferChild(_to, new bytes(0), _childTokenId);\n    }\n    \n    function transferChildToComposable(address _to, uint256 _tokenId, address _childContract, uint256 _childTokenId, uint256 composableId) external onlyApproved(_tokenId) {\n        removeChild(_tokenId, _childContract, _childTokenId);\n        //require that the child was transfered safely to it's destination\n        require(\n          _childContract.call(\n            bytes4(keccak256(\"transferFrom(address,address,uint256)\")), this, _to, _childTokenId\n          )\n        );\n        emit TransferChild(_to, new bytes(0), _childTokenId);\n    }\n    */\n    \n    /*\n    // This contract must be approved in _childContract so the child can be obtained\n    // Either the approve or setApprovalForAll functions can be used to approve this contract to get the child.\n    function getChild(address _from, uint256 _tokenId, address _childContract, uint256 _childTokenId) external {\n        uint256 childTokensLength = childTokens[_tokenId][_childContract].length;\n        if(childTokensLength == 0) {\n            childContractIndex[_tokenId][_childContract] = childContracts[_tokenId].length;\n            childContracts[_tokenId].push(_childContract);\n        }\n        childTokens[_tokenId][_childContract].push(_childTokenId);\n        childTokenIndex[_tokenId][_childContract][_childTokenId] = childTokensLength+1;\n        childTokenOwner[_childContract][_childTokenId] = _tokenId;\n        \n        require(\n          _childContract.call(\n            bytes4(keccak256(\"transferFrom(address,address,uint256)\")), _from, this, _childTokenId\n          )\n        );\n        emit ReceivedChild(_tokenId, _childContract, _childTokenId, _from);\n    }\n    \n    \n    function transferChild(address _to, uint256 _tokenId, address _childContract, uint256 _childTokenId) onlyApproved(_tokenId) external {\n        removeChild(_tokenId, _childContract, _childTokenId);\n        //require that the child was transfered safely to it's destination\n        require(\n          _childContract.call(\n            bytes4(keccak256(\"transferFrom(address,address,uint256,bytes)\")), this, _to, _childTokenId\n          )\n        );\n        bytes data;\n        \n        \n        emit TransferChild(_to, data, _childTokenId);\n    }\n    */\n    \n    function childOwnerOf(address _childContract, uint256 _childTokenId) external view returns (uint256 tokenId) {\n        tokenId = childTokenOwner[_childContract][_childTokenId];\n        if(tokenId == 0) {\n            require(childTokenIndex[tokenId][_childContract][_childTokenId] != 0, \"Child token is not owned by any tokens.\");\n        }\n        return tokenId;\n    }\n    \n    function childExists(address _childContract, uint256 _childTokenId) external view returns (bool) {\n        uint256 tokenId = childTokenOwner[_childContract][_childTokenId];\n        return childTokenIndex[tokenId][_childContract][_childTokenId] != 0;\n    }\n    \n    function totalChildContracts(uint256 _tokenId) external view returns(uint256) {\n        return childContracts[_tokenId].length;\n    }\n    \n    function childContractByIndex(uint256 _tokenId, uint256 _index) external view returns (address childContract) {\n        require(_index < childContracts[_tokenId].length, \"Contract address does not exist for this token and index.\");\n        return childContracts[_tokenId][_index];\n    }\n    \n    function totalChildTokens(uint256 _tokenId, address _childContract) external view returns(uint256) {\n        return childTokens[_tokenId][_childContract].length;\n    }\n    \n    function childTokenByIndex(uint256 _tokenId, address _childContract, uint256 _index) external view returns (uint256 childTokenId) {\n        require(_index < childTokens[_tokenId][_childContract].length, \"Token does not own a child token at contract address and index.\");\n        return childTokens[_tokenId][_childContract][_index];\n    }\n    \n}\n",
  "sourcePath": "/Users/albertchen/solidity/Moken/contracts/Moken.sol",
  "compiler": {
    "name": "solc",
    "version": "0.4.24+commit.e67f0147.Emscripten.clang"
  },
  "schemaVersion": "2.0.1",
  "updatedAt": "2018-07-25T10:49:08.754Z"
}